:100000000C94C6000C94E5000C94E5000C94E500FB
:100010000C94E5000C94E5000C94E5000C94E500CC
:100020000C94E5000C94E5000C94E5000C94E500BC
:100030000C94E5000C94E5000C94E5000C94E500AC
:100040000C94E5000C94E5000C94E5000C94E5009C
:100050000C94E5000C94E5000C94E5000C94E5008C
:100060000C94E5000C94E5000C94E5000C94E5007C
:100070000C94E5000C94E5000C94E5000C94E5006C
:100080000C94E7000C94E5000C94E50000000000DF
:100090000000000000000000000000000000000060
:1000A0000000000000000000000000000000000050
:1000B000000000000000000000000000000101013D
:1000C0000101010101010101010101010101010120
:1000D0000101010101010101020202020202020208
:1000E00002020202020202020202030303030303EA
:1000F00003030303030303040404040404040404C7
:10010000040405050505050505050505060606069D
:100110000606060606070707070707070708080871
:1001200008080808090909090909090A0A0A0A0A3E
:100130000A0A0B0B0B0B0B0B0C0C0C0C0C0C0D0D07
:100140000D0D0D0E0E0E0E0E0E0F0F0F0F0F1010C9
:100150001010101111111112121212121313131385
:10016000141414141415151515161616161717173A
:1001700017181818181919191A1A1A1A1B1B1B1BE9
:100180001C1C1C1D1D1D1E1E1E1E1F1F11241FBEFC
:10019000CFEFD0E4DEBFCDBF11E0A0E0B1E0EAE2F6
:1001A000F7E000E00BBF02C007900D92A230B1074C
:1001B000D9F71BE0A2E0B1E001C01D92A730B10762
:1001C000E1F70E94C0010C9493030C9400001F926D
:1001D0000F920FB60F9211240BB60F928F939F932D
:1001E000EF93FF93809101018F5F80930101853030
:1001F00099F41092010188E192E090939900809324
:100200009800809100018F5F803119F08093000188
:100210000DC0109200010AC0809198009091990041
:10022000880F991F90939900809398008BB18F70DD
:10023000806D8BB985B1807F90910001892B85B944
:10024000E09101018091000190E1E99FF00111240A
:10025000E80FF11D85E0EE0FFF1F8A95E1F7E95FDA
:10026000FE4F80E2019008B889B989B9019008B8B9
:1002700089B989B9019008B889B989B9019008B8D4
:1002800089B989B9019008B889B989B9019008B8C4
:1002900089B989B9019008B889B989B9019008B8B4
:1002A00089B989B9019008B889B989B9019008B8A4
:1002B00089B989B9019008B889B989B9019008B894
:1002C00089B989B9019008B889B989B9019008B884
:1002D00089B989B9019008B889B989B9019008B874
:1002E00089B989B9019008B889B989B9019008B864
:1002F00089B989B9019008B889B989B9019008B854
:1003000089B989B9019008B889B989B9019008B843
:1003100089B989B9019008B889B989B9019008B833
:1003200089B989B9019008B889B989B9019008B823
:1003300089B989B9019008B889B989B9019008B813
:1003400089B989B9019008B889B989B9019008B803
:1003500089B989B9019008B889B989B9019008B8F3
:1003600089B989B98BB18F708BB9FF91EF919F914A
:100370008F910F900BBE0F900FBE0F901F9018958E
:10038000CF93DF93CDB7DEB769970FB6F894DEBF92
:100390000FBECDBF87B18C6F87B988B1837088B924
:1003A00084B18F6084B985B1807F85B98AB1806F4F
:1003B0008AB98BB18F70806C8BB980E09AE0E7E0EE
:1003C000F1E0DF019C011D9221503040E1F7F894EB
:1003D0001092900089E08093910010929200109208
:1003E00095001092940088E192E090939900809398
:1003F000980082E0809371007894309106013A8BE6
:10040000509105015B8B809104018C8B009103015D
:10041000909102019D8BE82FF0E0E457FF4F74911B
:10042000E52FF0E0E457FF4F1491E32FF0E0E4579D
:10043000FF4FA491AE8B202F22952695277030EE8A
:100440003203C00111245D89851B91094F96402F0D
:100450004F70202F2F7130E02031310514F065E00E
:1004600001C062E0A42FB0E0FC0120E2429FE00D59
:10047000F11D1124E95FFE4FF98FE88F3081398B30
:10048000262F30E047E050E0062E01C0440F0A94CA
:10049000EAF7E42FE095EF8BA9014F5F5F4F2E5FE6
:1004A0003F4F10FBEE24E0F8042E01C0EE0C0A943E
:1004B000EAF7FE89F0FB662460F8022E01C0660CA4
:1004C0000A94EAF73E2D362970FBCC24C0F8062E9C
:1004D00001C0CC0C0A94EAF73C29A988AE223A293B
:1004E000E88DF98D3083FD01709635E0EE0FFF1F2A
:1004F0003A95E1F7E80FF91FE95FFE4FF98FE88FB2
:10050000508111FBFF27F0F9F9831A82A980BA8084
:10051000042E02C0AA0CBB1C0A94E2F7BA82A9827C
:10052000EE89E695E170EB831C82AB80BC80022EE5
:1005300002C0AA0CBB1C0A94E2F7BC82AB823981D0
:100540003A2971FBBB24B0F8BD821E82AD80BE800B
:10055000062E02C0AA0CBB1C0A94E2F7BE82AD8232
:100560003A29BF885B21352BE88DF98D3083FD0159
:10057000B09655E0EE0FFF1F5A95E1F7E80FF91F0F
:10058000E95FFE4FF98FE88F508112FBFF27F0F9EA
:10059000FF831886AF80B884042E02C0AA0CBB1C4F
:1005A0000A94E2F7B886AF82BE88B2FABB24B0F8EC
:1005B000B9861A86A984BA84022E02C0AA0CBB1C72
:1005C0000A94E2F7BA86A9863F813A2972FBBB24D6
:1005D000B0F8BB861C86AB84BC84062E02C0AA0C75
:1005E000BB1C0A94E2F7BC86AB863A29BF885B2124
:1005F000352BE88DF98D3083FD01F09635E0EE0F57
:10060000FF1F3A95E1F7E80FF91FE95FFE4FF98FF9
:10061000E88F508113FBFF27F0F9FD871E86AD841C
:10062000BE84042E02C0AA0CBB1C0A94E2F7BE864C
:10063000AD86BE88B3FABB24B0F8BF86188AAF84F3
:10064000B888022E02C0AA0CBB1C0A94E2F7B88A32
:10065000AF863D853A2973FB222420F8062E01C07F
:10066000220C0A94EAF73229BF885B21352BE88DEA
:10067000F98D3083A05CBF4F55E0AA0FBB1F5A9580
:10068000E1F7A80FB91FA95FBE4F8C9114FB44245A
:1006900040F8042E01C0440C0A94EAF7FE89F4FBEA
:1006A000882480F801C0880C2A95EAF7942D9829AF
:1006B00074FBAA24A0F8062E01C0AA0C0A94EAF73B
:1006C0009A292F898223982B9C938D898F5F809301
:1006D0000201803249F4109202010F5F009303017E
:1006E000003211F4109203018C89815F8093040120
:1006F000813F90F0109204018B89815F8093050106
:10070000813F50F0109205018A89815F8093060134
:10071000813F10F0109206018FE99FE00197F1F7F9
:0A07200000C000006ACEF894FFCF7D
:02072A000F04BA
:00000001FF
