:100000000C94C6000C94E5000C94E5000C94E500FB
:100010000C94E5000C94E5000C94E5000C94E500CC
:100020000C94E5000C94E5000C94E5000C94E500BC
:100030000C94E5000C94E7000C94E5000C94E500AA
:100040000C94E5000C94E5000C94E5000C94E5009C
:100050000C94E5000C94E5000C94E5000C94E5008C
:100060000C94E5000C94E5000C94E5000C94E5007C
:100070000C94E5000C94E5000C94E5000C94E5006C
:100080000C94E5000C94E5000C94E50000000000E1
:100090000000000000000000000000000000000060
:1000A0000000000000000000000000000000000050
:1000B0000000000000000000000000000000000040
:1000C000000000000000000000000000000001012E
:1000D0000101010101010101010101010101010110
:1000E0000101010101010101010101010101010100
:1000F00001010202020202020202020202020202E2
:1001000002020202020202020203030303030303C8
:1001100003030303030303030303030404040404AA
:100120000404040404040404040405050505050589
:100130000505050505050506060606060606060666
:100140000606060707070707070707070707080840
:100150000808080808080808090909090909090917
:10016000090A0A0A0A0A0A0A0A0A0B0B0B0B0B0BEA
:100170000B0B0C0C0C0C0C0C0C0C0D0D0D0D0D0DBB
:100180000D0E0E0E0E0E0E0E0F0F0F0F11241FBEB2
:10019000CFEFD0E4DEBFCDBF11E0A0E0B1E0E2EAF6
:1001A000F7E000E00BBF02C007900D92A230B1074C
:1001B000D9F711E1A2E0B1E001C01D92A730B1076B
:1001C000E1F70E9440020C94CF030C9400001F92B0
:1001D0000F920FB60F9211240BB60F928F939F932D
:1001E000EF93FF93809101018F5F80930101843031
:1001F00099F41092010186E594E090938900809330
:100200008800809100018F5F803119F08093000198
:100210000DC0109200010AC0809188009091890061
:10022000880F991F90938900809388008BB18F70FD
:10023000806D8BB985B1807F90910001892B85B944
:10024000E09101018091000190E1E99FF00111240A
:10025000E80FF11D86E0EE0FFF1F8A95E1F7E95FD9
:10026000FE4F80E2019008B889B989B9019008B8B9
:1002700089B989B9019008B889B989B9019008B8D4
:1002800089B989B9019008B889B989B9019008B8C4
:1002900089B989B9019008B889B989B9019008B8B4
:1002A00089B989B9019008B889B989B9019008B8A4
:1002B00089B989B9019008B889B989B9019008B894
:1002C00089B989B9019008B889B989B9019008B884
:1002D00089B989B9019008B889B989B9019008B874
:1002E00089B989B9019008B889B989B9019008B864
:1002F00089B989B9019008B889B989B9019008B854
:1003000089B989B9019008B889B989B9019008B843
:1003100089B989B9019008B889B989B9019008B833
:1003200089B989B9019008B889B989B9019008B823
:1003300089B989B9019008B889B989B9019008B813
:1003400089B989B9019008B889B989B9019008B803
:1003500089B989B9019008B889B989B9019008B8F3
:1003600089B989B9019008B889B989B9019008B8E3
:1003700089B989B9019008B889B989B9019008B8D3
:1003800089B989B9019008B889B989B9019008B8C3
:1003900089B989B9019008B889B989B9019008B8B3
:1003A00089B989B9019008B889B989B9019008B8A3
:1003B00089B989B9019008B889B989B9019008B893
:1003C00089B989B9019008B889B989B9019008B883
:1003D00089B989B9019008B889B989B9019008B873
:1003E00089B989B9019008B889B989B9019008B863
:1003F00089B989B9019008B889B989B9019008B853
:1004000089B989B9019008B889B989B9019008B842
:1004100089B989B9019008B889B989B9019008B832
:1004200089B989B9019008B889B989B9019008B822
:1004300089B989B9019008B889B989B9019008B812
:1004400089B989B9019008B889B989B9019008B802
:1004500089B989B9019008B889B989B9019008B8F2
:1004600089B989B98BB18F708BB9FF91EF919F9149
:100470008F910F900BBE0F900FBE0F901F9018958D
:10048000CF93DF93CDB7DEB763970FB6F894DEBF97
:100490000FBECDBF87B18C6F87B988B1837088B923
:1004A00084B18F6084B985B1807F85B98AB1806F4E
:1004B0008AB98BB18F70806C8BB980E090E2E7E0F5
:1004C000F1E0DF019C011D9221503040E1F7F894EA
:1004D0001092800089E08093810010928200109237
:1004E00085001092840086E594E0909389008093C3
:1004F000880082E080936F007894309106013D87F8
:10050000509105015E87809104018F8760910301FE
:10051000D0900201E82FF0E0E457FF4F7491E52FEF
:10052000F0E0E457FF4F1491E32FF0E0E457FF4F62
:10053000E491262F22952695277030EC3203C001D6
:1005400011248D199109CF96462F4F70262F2F71A8
:1005500030E02031310514F0F5E001C0F2E0A42FC5
:10056000B0E0B98BA88B5C0120E4429FA00CB11CC9
:100570001124D501A95FBE4FBB8BAA8B0C912F2FE5
:1005800030E047E050E00F2E01C0440F0A94EAF734
:10059000C42EC094A9014F5F5F4F2E5F3F4F10FBE9
:1005A000EE24E0F8042E01C0EE0C0A94EAF7E0FB1A
:1005B000662460F8022E01C0660C0A94EAF73E2D0C
:1005C0003629B72FB170B9831A82A980BA800F2E4D
:1005D00002C0AA0CBB1C0A94E2F7BA82A9823A298B
:1005E0000C21302BAA89BB893C93A889B9895096E4
:1005F00006E0AA0FBB1F0A95E1F7A80FB91FA95F74
:10060000BE4FBB8BAA8B5C9111FBBB27B0F9BB83A0
:100610001C82AB80BC80042E02C0AA0CBB1C0A94B6
:10062000E2F7BC82AB82E1FBBB24B0F8BD821E8244
:10063000AD81BE81022E02C0AA0FBB1F0A94E2F751
:10064000BE83AD833A2D3A2B71FBBB27B0F9BF8334
:100650001886AF80B8840F2E02C0AA0CBB1C0A9467
:10066000E2F7B886AF823A295C21352BAA89BB898B
:100670003C93A889B989909636E0AA0FBB1F3A959A
:10068000E1F7A80FB91FA95FBE4FBB8BAA8B5C9186
:1006900012FBBB27B0F9B9871A86A984BA84042E45
:1006A00002C0AA0CBB1C0A94E2F7BA86A986E2FB38
:1006B000BB24B0F8BB861C86AB85BC85022E02C06D
:1006C000AA0FBB1F0A94E2F7BC87AB873A2D3A2BDF
:1006D00072FB222420F80F2E01C0220C0A94EAF7A4
:1006E00032295C21352BAA89BB893C93A889B98919
:1006F000D09656E0AA0FBB1F5A95E1F7A80FB91F75
:10070000A95FBE4F8C9113FB442440F8042E01C016
:10071000440C0A94EAF7E3FB882480F8022E01C017
:10072000880C0A94EAF7942D982973FBAA24A0F860
:100730000F2E01C0AA0C0A94EAF79A298C21982B53
:100740009C9381E08D0D80930201803449F41092D6
:1007500002016F5F60930301603211F41092030194
:100760008F85815F80930401813F90F01092040196
:100770008E85815F80930501813F50F010920501C5
:100780000D85015F00930601013F10F010920601F4
:10079000EFE9FFE03197F1F700C00000AECEF8942A
:0207A000FFCF89
:0207A2000F0343
:00000001FF
