:100000000C9446000C9465000C9465000C946500FB
:100010000C9465000C9465000C9465000C946500CC
:100020000C9465000C9467000C9465000C946500BA
:100030000C9465000C9465000C9465000C946500AC
:100040000C9465000C9465000C9465000C9465009C
:100050000C9465000C9465000C9465000C9465008C
:100060000C9465000C9465000C9465000C9465007C
:100070000C9465000C9465000C9465000C9465006C
:100080000C9465000C9465000C94650011241FBE4F
:10009000CFEFD0E4DEBFCDBF11E0A0E0B1E0E2E7FA
:1000A000F4E000E00BBF02C007900D92A830B1074A
:1000B000D9F715E0A8E0B1E001C01D92AC30B1075E
:1000C000E1F70E9499010C9437020C9400001F92F2
:1000D0000F920FB60F9211240BB60F928F93EF93DE
:1000E000FF9385B1887D866285B988B1807FE09174
:1000F00008058E2B88B980E4E89FF0011124E85FA1
:10010000FE4F81E001900BB883B983B901900BB821
:1001100083B983B901900BB883B983B901900BB847
:1001200083B983B901900BB883B983B901900BB837
:1001300083B983B901900BB883B983B901900BB827
:1001400083B983B901900BB883B983B901900BB817
:1001500083B983B901900BB883B983B901900BB807
:1001600083B983B901900BB883B983B901900BB8F7
:1001700083B983B901900BB883B983B901900BB8E7
:1001800083B983B901900BB883B983B901900BB8D7
:1001900083B983B901900BB883B983B901900BB8C7
:1001A00083B983B901900BB883B983B901900BB8B7
:1001B00083B983B901900BB883B983B901900BB8A7
:1001C00083B983B901900BB883B983B901900BB897
:1001D00083B983B901900BB883B983B901900BB887
:1001E00083B983B901900BB883B983B901900BB877
:1001F00083B983B901900BB883B983B901900BB867
:1002000083B983B901900BB883B983B901900BB856
:1002100083B983B901900BB883B983B901900BB846
:1002200083B983B901900BB883B983B901900BB836
:1002300083B983B901900BB883B983B901900BB826
:1002400083B983B901900BB883B983B901900BB816
:1002500083B983B901900BB883B983B901900BB806
:1002600083B983B901900BB883B983B901900BB8F6
:1002700083B983B901900BB883B983B901900BB8E6
:1002800083B983B901900BB883B983B901900BB8D6
:1002900083B983B901900BB883B983B901900BB8C6
:1002A00083B983B901900BB883B983B901900BB8B6
:1002B00083B983B901900BB883B983B901900BB8A6
:1002C00083B983B901900BB883B983B901900BB896
:1002D00083B983B901900BB883B983B901900BB886
:1002E00083B983B901900BB883B983B901900BB876
:1002F00083B983B901900BB883B983B901900BB866
:1003000083B983B985B1887D85B9809108058F5FF0
:10031000803119F08093080502C010920805FF9102
:10032000EF918F910F900BBE0F900FBE0F901F900B
:100330001895CF93DF93CDB7DEB728970FB6F89413
:10034000DEBF0FBECDBF8AB18C6F8AB98BB183700F
:100350008BB987B18F6087B988B1807F88B984B144
:10036000876284B985B1887D866085B980E098E030
:10037000E8E0F1E0DF019C011D9221503040E1F7FF
:10038000F89482E08093B00096E09093B1001092D0
:10039000B20090E49093B30080937000789458E09A
:1003A000E52E27E030E00091090510910A05F09054
:1003B0000B05412F4F7050E0612F62956695677075
:1003C00070EC7603C00111248F199109CF96612F2B
:1003D0006F7170E06031710514F063E001C060E09E
:1003E000E0E0F1E0DE0111967E2D01900D927A950C
:1003F000E1F7FA0146E0EE0FFF1F4A95E1F7E80F3B
:10040000F91FE85FFE4F4081C901062E01C0880F29
:100410000A94EAF780958423A1E0B0E0AC0FBD1FF9
:10042000A00FB11D9C9101C0990F6A95EAF7982B16
:1004300090838F2D8F5F80930B05803489F4109209
:100440000B051F5F10930A05103251F410920A0534
:10045000073019F41092090503C00F5F00930905D6
:100460008FE39CE90197F1F700C000009CCFF8945E
:02047000FFCFBC
:08047200040201060305070066
:00000001FF
