:100000000C9446000C9465000C9465000C946500FB
:100010000C9465000C9465000C9465000C946500CC
:100020000C9465000C9467000C9465000C946500BA
:100030000C9465000C9465000C9465000C946500AC
:100040000C9465000C9465000C9465000C9465009C
:100050000C9465000C9465000C9465000C9465008C
:100060000C9465000C9465000C9465000C9465007C
:100070000C9465000C9465000C9465000C9465006C
:100080000C9465000C9465000C94650011241FBE4F
:10009000CFEFD0E4DEBFCDBF11E0A0E0B1E0EAE7F2
:1000A000F4E000E00BBF02C007900D92A830B1074A
:1000B000D9F715E0A8E0B1E001C01D92AC30B1075E
:1000C000E1F70E949D010C943B020C9400001F92EA
:1000D0000F920FB60F9211240BB60F928F939F932E
:1000E000EF93FF938BB18F70806D8BB985B1807F5B
:1000F00090910B01892B85B9E0910B0180E4E89F79
:10010000F0011124E45FFE4F80E2019008B889B944
:1001100089B9019008B889B989B9019008B889B935
:1001200089B9019008B889B989B9019008B889B925
:1001300089B9019008B889B989B9019008B889B915
:1001400089B9019008B889B989B9019008B889B905
:1001500089B9019008B889B989B9019008B889B9F5
:1001600089B9019008B889B989B9019008B889B9E5
:1001700089B9019008B889B989B9019008B889B9D5
:1001800089B9019008B889B989B9019008B889B9C5
:1001900089B9019008B889B989B9019008B889B9B5
:1001A00089B9019008B889B989B9019008B889B9A5
:1001B00089B9019008B889B989B9019008B889B995
:1001C00089B9019008B889B989B9019008B889B985
:1001D00089B9019008B889B989B9019008B889B975
:1001E00089B9019008B889B989B9019008B889B965
:1001F00089B9019008B889B989B9019008B889B955
:1002000089B9019008B889B989B9019008B889B944
:1002100089B9019008B889B989B9019008B889B934
:1002200089B9019008B889B989B9019008B889B924
:1002300089B9019008B889B989B9019008B889B914
:1002400089B9019008B889B989B9019008B889B904
:1002500089B9019008B889B989B9019008B889B9F4
:1002600089B9019008B889B989B9019008B889B9E4
:1002700089B9019008B889B989B9019008B889B9D4
:1002800089B9019008B889B989B9019008B889B9C4
:1002900089B9019008B889B989B9019008B889B9B4
:1002A00089B9019008B889B989B9019008B889B9A4
:1002B00089B9019008B889B989B9019008B889B994
:1002C00089B9019008B889B989B9019008B889B984
:1002D00089B9019008B889B989B9019008B889B974
:1002E00089B9019008B889B989B9019008B889B964
:1002F00089B9019008B889B989B9019008B889B954
:1003000089B9019008B889B989B98BB18F708BB957
:1003100080910B018F5F803119F080930B0102C037
:1003200010920B01FF91EF919F918F910F900BBE57
:100330000F900FBE0F901F901895CF93DF93CDB7FE
:10034000DEB728970FB6F894DEBF0FBECDBF87B1DA
:100350008C6F87B988B1837088B984B18F6084B994
:1003600085B1807F85B98AB1806F8AB98BB18F7072
:10037000806C8BB980E098E0ECE0F1E0DF019C015B
:100380001D9221503040E1F7F89482E08093B00054
:1003900096E09093B1001092B20090E49093B30075
:1003A00080937000789458E0E52E27E030E00091CB
:1003B0000A0110910901F0900801412F4F7050E09F
:1003C000612F62956695677070EC7603C001112409
:1003D0008F199109CF96612F6F7170E060317105AF
:1003E00014F063E001C060E0E0E0F1E0DE011196AE
:1003F0007E2D01900D927A95E1F7FA0146E0EE0F1D
:10040000FF1F4A95E1F7E80FF91FE45FFE4F4081B7
:10041000C901062E01C0880F0A94EAF7809584234B
:10042000A1E0B0E0AC0FBD1FA00FB11D9C9101C0B9
:10043000990F6A95EAF7982B908381E08F0D80934E
:100440000801803489F4109208011F5F109309019C
:10045000103251F410920901073019F410920A0178
:1004600003C00F5F00930A018FE39CE90197F1F746
:0A04700000C000009CCFF894FFCFFD
:08047A0004020106030507005E
:00000001FF
