:100000000C9446000C9465000C9465000C946500FB
:100010000C9465000C9465000C9465000C946500CC
:100020000C9465000C9465000C9465000C946500BC
:100030000C9465000C9465000C9465000C946500AC
:100040000C9465000C9465000C9465000C9465009C
:100050000C9465000C9465000C9465000C9465008C
:100060000C9465000C9465000C9465000C9465007C
:100070000C9465000C9465000C9465000C9465006C
:100080000C9467000C9465000C94650011241FBE4D
:10009000CFEFD0E4DEBFCDBF11E0A0E0B1E0EAEEEB
:1000A000F4E000E00BBF02C007900D92A230B10750
:1000B000D9F717E0A2E0B1E001C01D92A730B10767
:1000C000E1F70E9440010C9473020C9400001F920F
:1000D0000F920FB60F9211240BB60F928F939F932E
:1000E000EF93FF93809101018F5F80930101833033
:1000F00099F4109201018BE499E090939900809318
:100100009800809100018F5F803119F08093000189
:100110000DC0109200010AC0809198009091990042
:10012000880F991F90939900809398008BB18F70DE
:10013000806D8BB985B1807F90910001892B85B945
:10014000E09101018091000190E1E99FF00111240B
:10015000E80FF11D85E0EE0FFF1F8A95E1F7E95FDB
:10016000FE4F80E2019008B889B989B9019008B8BA
:1001700089B989B9019008B889B989B9019008B8D5
:1001800089B989B9019008B889B989B9019008B8C5
:1001900089B989B9019008B889B989B9019008B8B5
:1001A00089B989B9019008B889B989B9019008B8A5
:1001B00089B989B9019008B889B989B9019008B895
:1001C00089B989B9019008B889B989B9019008B885
:1001D00089B989B9019008B889B989B9019008B875
:1001E00089B989B9019008B889B989B9019008B865
:1001F00089B989B9019008B889B989B9019008B855
:1002000089B989B9019008B889B989B9019008B844
:1002100089B989B9019008B889B989B9019008B834
:1002200089B989B9019008B889B989B9019008B824
:1002300089B989B9019008B889B989B9019008B814
:1002400089B989B9019008B889B989B9019008B804
:1002500089B989B9019008B889B989B9019008B8F4
:1002600089B989B98BB18F708BB9FF91EF919F914B
:100270008F910F900BBE0F900FBE0F901F9018958F
:10028000CF93DF93CDB7DEB72A970FB6F894DEBFD2
:100290000FBECDBF87B18C6F87B988B1837088B925
:1002A00084B18F6084B985B1807F85B98AB1806F50
:1002B0008AB98BB18F70806C8BB980E096E0E7E0F3
:1002C000F1E0DF01BC011D9261507040E1F7F8944C
:1002D0001092900089E08093910010929200109209
:1002E0009500109294008BE499E09093990080938C
:1002F000980082E080937100789400910601F0905C
:100300000501E0900401709103017983809102015D
:100310008E83672F62956695677070EE7603C001D5
:100320001124AE818A1B91094F96A981AF70698112
:100330006F7170E06031710514F015E001C012E0DA
:10034000EA2FF0E0F887EF839C0140E2A49F200DA4
:10035000311D1124D901A95FBE4F8C90612F70E02F
:10036000E7E0F0E0012E01C0EE0F0A94EAF79E2EBE
:100370009094FB013196FA87E9876E5F7F4FF0FA20
:10038000CC24C0F8D12C098402C0CC0CDD1C0A940A
:10039000E2F7F02FF170FA831B822A813B81062E4F
:1003A00002C0220F331F0A94E2F73B832A83722F85
:1003B0007C293E2D31703C831D82EC81FD81012E14
:1003C00002C0EE0FFF1F0A94E2F7FD83EC837E2B41
:1003D000892078297C93AF81B8855096F5E0AA0FE3
:1003E000BB1FFA95E1F7A80FB91FA95FBE4FEC91AB
:1003F000F1FA222420F8312C098402C0220C331C8B
:100400000A94E2F701FB442440F8062E01C0440C94
:100410000A94EAF7722D7429E1FA662460F8012E35
:1004200001C0660C0A94EAF77629E9217E2B7C93B9
:10043000EF81F885B096A5E0EE0FFF1FAA95E1F7D2
:10044000E80FF91FE95FFE4F8081F2FAAA24A0F8B5
:10045000B12C098402C0AA0CBB1C0A94E2F702FB6F
:10046000222720F9062E01C0220F0A94EAF79A2DBE
:10047000922BE2FA442740F9012E01C0440F0A945E
:10048000EAF7942B8921982B90838E818F5F80933C
:100490000201803251F41092020189818F5F8093B2
:1004A0000301803211F41092030181E08E0D8093DC
:1004B0000401883089F41092040181E08F0D80934B
:1004C0000501883049F4109205010F5F0093060181
:1004D000083011F4109206018FE99FE00197F1F7BF
:0A04E00000C000000ACFF894FFCF1F
:0204EA000F02FF
:00000001FF
