:100000000C94C6000C94E5000C94E5000C94E500FB
:100010000C94E5000C94E5000C94E5000C94E500CC
:100020000C94E5000C94E5000C94E5000C94E500BC
:100030000C94E5000C94E7000C94E5000C94E500AA
:100040000C94E5000C94E5000C94E5000C94E5009C
:100050000C94E5000C94E5000C94E5000C94E5008C
:100060000C94E5000C94E5000C94E5000C94E5007C
:100070000C94E5000C94E5000C94E5000C94E5006C
:100080000C94E5000C94E5000C94E50000000000E1
:100090000000000000000000000000000000000060
:1000A0000000000000000000000000000000000050
:1000B0000000000000000000000000000000000040
:1000C000000000000000000000000000000001012E
:1000D0000101010101010101010101010101010110
:1000E0000101010101010101010101010101010100
:1000F00001010202020202020202020202020202E2
:1001000002020202020202020203030303030303C8
:1001100003030303030303030303030404040404AA
:100120000404040404040404040405050505050589
:100130000505050505050506060606060606060666
:100140000606060707070707070707070707080840
:100150000808080808080808090909090909090917
:10016000090A0A0A0A0A0A0A0A0A0B0B0B0B0B0BEA
:100170000B0B0C0C0C0C0C0C0C0C0D0D0D0D0D0DBB
:100180000D0E0E0E0E0E0E0E0F0F0F0F11241FBEB2
:10019000CFEFD0E4DEBFCDBF11E0A0E0B1E0EAE9EF
:1001A000F7E000E00BBF02C007900D92A230B1074C
:1001B000D9F711E1A2E0B1E001C01D92A730B1076B
:1001C000E1F70E9440020C94CB030C9400001F92B4
:1001D0000F920FB60F9211240BB60F928F939F932D
:1001E000EF93FF93809101018F5F80930101843031
:1001F00099F41092010186E594E090938900809330
:100200008800809100018F5F803119F08093000198
:100210000DC0109200010AC0809188009091890061
:10022000880F991F90938900809388008BB18F70FD
:10023000806D8BB985B1807F90910001892B85B944
:10024000E09101018091000190E1E99FF00111240A
:10025000E80FF11D86E0EE0FFF1F8A95E1F7E95BDD
:10026000FE4F80E2029008B889B989B9029008B8B7
:1002700089B989B9029008B889B989B9029008B8D2
:1002800089B989B9029008B889B989B9029008B8C2
:1002900089B989B9029008B889B989B9029008B8B2
:1002A00089B989B9029008B889B989B9029008B8A2
:1002B00089B989B9029008B889B989B9029008B892
:1002C00089B989B9029008B889B989B9029008B882
:1002D00089B989B9029008B889B989B9029008B872
:1002E00089B989B9029008B889B989B9029008B862
:1002F00089B989B9029008B889B989B9029008B852
:1003000089B989B9029008B889B989B9029008B841
:1003100089B989B9029008B889B989B9029008B831
:1003200089B989B9029008B889B989B9029008B821
:1003300089B989B9029008B889B989B9029008B811
:1003400089B989B9029008B889B989B9029008B801
:1003500089B989B9029008B889B989B9029008B8F1
:1003600089B989B9029008B889B989B9029008B8E1
:1003700089B989B9029008B889B989B9029008B8D1
:1003800089B989B9029008B889B989B9029008B8C1
:1003900089B989B9029008B889B989B9029008B8B1
:1003A00089B989B9029008B889B989B9029008B8A1
:1003B00089B989B9029008B889B989B9029008B891
:1003C00089B989B9029008B889B989B9029008B881
:1003D00089B989B9029008B889B989B9029008B871
:1003E00089B989B9029008B889B989B9029008B861
:1003F00089B989B9029008B889B989B9029008B851
:1004000089B989B9029008B889B989B9029008B840
:1004100089B989B9029008B889B989B9029008B830
:1004200089B989B9029008B889B989B9029008B820
:1004300089B989B9029008B889B989B9029008B810
:1004400089B989B9029008B889B989B9029008B800
:1004500089B989B9029008B889B989B9029008B8F0
:1004600089B989B98BB18F708BB9FF91EF919F9149
:100470008F910F900BBE0F900FBE0F901F9018958D
:10048000CF93DF93CDB7DEB763970FB6F894DEBF97
:100490000FBECDBF87B18C6F87B988B1837088B923
:1004A00084B18F6084B985B1807F85B98AB1806F4E
:1004B0008AB98BB18F70806C8BB980E090E1E7E0F6
:1004C000F1E0DF01AC011D9241505040E1F7F8949A
:1004D0001092800089E08093810010928200109237
:1004E00085001092840086E594E0909389008093C3
:1004F000880082E080936F007894509106015D87B8
:10050000809105018E87909104019F8710910301CE
:10051000B0900201E92FF0E0E457FF4F0491E82F7B
:10052000F0E0E457FF4FF490E52FF0E0E457FF4F81
:10053000A491A88B812F829586958770B0E48B9FBC
:10054000C00111248B0D911D612F6F70412F4F71D0
:1005500050E0403151051CF0E5E0EB8B02C0F2E0C9
:10056000FB8B262F30E03A8B298BFC0130E4639F14
:10057000E00DF11D1124E95FFE4FE080AB894A2FA9
:1005800050E067E070E001C0660FAA95EAF7A62E7A
:10059000A094BA016F5F7F4F4E5F5F4FF0FACC249B
:1005A000C0F8062E01C0CC0C0A94EAF7B889B0FB5B
:1005B000662460F8042E01C0660C0A94EAF75C2DEC
:1005C0005629202F217029831A82A981BA810B888C
:1005D00002C0AA0FBB1F0A94E2F7BA83A9835A2B61
:1005E000EA205E295083A989BA895096F6E0AA0FBD
:1005F000BB1FFA95E1F7A80FB91FA95FBE4F7C9109
:10060000F1FAEE27E0F9EB831C822B813C81062E68
:1006100002C0220F331F0A94E2F73C832B833889F0
:10062000369531703D831E822D813E81042E02C09D
:10063000220F331F0A94E2F73E832D835B81522BF6
:1006400001FB332730F93F8318862F8138850B88CB
:1006500002C0220F331F0A94E2F738872F83522BF0
:100660007A21572B5C93A989BA89909626E0AA0F24
:10067000BB1F2A95E1F7A80FB91FA95FBE4F7C9158
:10068000F2FA332730F939871A8629853A85062EFA
:1006900002C0220F331F0A94E2F73A87298738896C
:1006A00032FB332730F93B871C862B853C85042E93
:1006B00002C0220F331F0A94E2F73C872B8759852B
:1006C000522B02FB222420F8312C0B8802C0220C72
:1006D000331C0A94E2F752297A21572B5C93E9895B
:1006E000FA89F09636E0EE0FFF1F3A95E1F7E80F32
:1006F000F91FE95FFE4F8081F3FA442440F8062E8B
:1007000001C0440C0A94EAF7388933FB882480F846
:10071000042E01C0880C0A94EAF7942D982903FB53
:10072000222720F930E00B8802C0220F331F0A94E1
:10073000E2F7922B8A21982B908381E08B0D809396
:100740000201803449F4109202011F5F10930301EB
:10075000103211F4109203018F85815F80930401A0
:10076000813F90F0109204018E85815F8093050196
:10077000813F50F0109205018D85815F80930601C5
:10078000813F10F0109206018FE99FE00197F1F789
:0A07900000C00000B2CEF894FFCFC5
:02079A000F034B
:00000001FF
