:100000000C9486610C94A5610C94A5610C94A56177
:100010000C94A5610C94A5610C94A5610C94A56148
:100020000C94A5610C94A5610C94A5610C94A56138
:100030000C94A5610C94A7610C94A5610C94A56126
:100040000C94A5610C94A5610C94A5610C94A56118
:100050000C94A5610C94A5610C94A5610C94A56108
:100060000C94A5610C94A5610C94A5610C94A561F8
:100070000C94A5610C94A5610C94A5610C94A561E8
:100080000C94A5610C94A5610C94A5618BC00ABF6A
:1000900089BD08BC87BA06B985B704B683B402B374
:1000A00081B100B07FAEFEAC7DABFCA97BA8FAA607
:1000B00079A5F8A377A2F6A0759FF49D739CF29A98
:1000C0007199F0976F96EE946D93EC916B90EA8E28
:1000D000698DE88B678AE6886587E4856384E282B8
:1000E0006181E07F5F7EDE7C5D7BDC795B78DA7648
:1000F0005975D8735772D670556FD46D536CD26AD8
:100100005169D0674F66CE644D63CC614B60CA5E67
:10011000495DC85B475AC6584557C4554354C252F7
:100120004151C04F3F4EBE4C3D4BBC493B48BA4687
:100130003945B8433742B640353FB43D333CB23A17
:100140003139B0372F36AE342D33AC312B30AA2EA7
:10015000292DA82B272AA6282527A4252324A22237
:100160002121A01F1F1E9E1C1D1B9C191B189A16C7
:100170001915981317129610150F940D130C920A57
:10018000110990070F068E040D038C0158183C5E70
:100190001A3C5F1C4374365AD1ADA2DDBFB2DABC43
:1001A000ABC79784B3575BDC7866E99274EC9F7FAA
:1001B000EDA27FEFA380E6997A97475C68254C58BB
:1001C00015415917405A1C4560214C6F2D566D271B
:1001D00052732C556C2A566C2A5E8658816F2E57A6
:1001E0006420527634627139677332607D4671796A
:1001F00040747E4C766B32595516466D29536E30DD
:10020000585A1B496F33616E2D5C895072772A50A2
:10021000902C40A03441AC3B42BE4748C64D4CCB2D
:100220005251CD5653D05852D25A52D15E59D15C08
:1002300056D55D55D55D56D85F59D8625BDB5F57A3
:10024000DD6159DE665EDD665FDF6159DE635DDFBD
:100250006864DF6A66E06A65E17067E07068DE71B5
:100260006AE06F68E1726AE07269E1776BE0766C70
:10027000DF776BDF776CDE7A6DDF7970E08273E1B8
:100280008174E1877AE18E83E08F81E09588E19B3C
:100290008CE2A796E3B09EE4B5A6E6BAADE9BFB29C
:1002A000EBC4B8ECC7BEF0CCB9CE94958F46658C44
:1002B00045538F434F964E589F545DB36060CA6755
:1002C0005DCB5F58C85C55C75B57D1685CD4685933
:1002D000C35753A5414D973D4E87344D7C335189CB
:1002E0003E598D4058873A528F3E53A65666B06AA3
:1002F00074A96875925063752E48631E3E5E14366D
:10030000641A3B752B49973F52B04550005C1C3D29
:10031000601D3F632146814463D4B0A6DFC2B2DFD3
:10032000BFABC99B88B3565ADB7766E89575EB9EE1
:1003300078EEA07CF0A47DE99778B55E686F264ED4
:100340005A18435A19425A1D4860244C67224F6A72
:1003500024507430586222506D305B632858824BB1
:10036000745C184B743565763D6E7D3E7091658D7D
:100370005413487B45706B316062214E77355D6E5A
:10038000305C67265980497A875583652A54560B15
:100390003372153490283BAA373FB94548C24B4ABF
:1003A000C84E4DCB5551CD5551D05851D25E57D036
:1003B0005C57D35D56D76058D85F58D9615BDA5E19
:1003C00055DB645BDD655EDD655CDC645DDF6B63B6
:1003D000DE6965DF6963E06C65E06F69E1726AE0C0
:1003E0007168E07169E17369E07369E0776DE176E6
:1003F0006ADF756BDF7467DE796CE17C6EE17D71BD
:10040000E08074E1887AE18E7EDF8F81E19C89E172
:100410009F8DE3AA99E2B09EE5B7A9E7BEB1EAC312
:10042000B6EBC7B9EDCABCEFCCB6AB6C7481384B38
:100430008E4751954C5797515DA55C62B15E60BB8C
:100440005E5CC25C58BE5554BC5353C35454CA5C22
:1004500057C75B57B04A529D40539A475B8A4059F1
:10046000833B54863B5284384D86334A97485DAC73
:10047000626FAC68769D5A6B8A465D752B46641C2C
:100480003D631A3B6A23407B2A4398394800601D2C
:100490003F621D4169264A814564C7A6A2E0C3B3F5
:1004A000DCBEAAB6837DB45759DC7864EA9575ED55
:1004B0009E7DEFA281F1A680E897799F4F636A2223
:1004C0004B5D1C465C1D465718435C1A4864224C21
:1004D00061204D6728525F26506226565A1B4C8673
:1004E000537E56184B682C5E7C41778D6089733E35
:1004F0006A591F4F844E775E214E5D1C4B834D71B0
:100500005D2253743868804D7C64285652133C56E3
:10051000143C631639741935942E3BB03E45BE49E0
:1005200049C74F4BC9524DCA524FD05854D15B574F
:10053000D35C56D45B55D55F58D76158D75F59D92E
:10054000615ADB635ADC645CDD685FDE6660DE672F
:100550005EE06963E06A63DF6B65E07069E06F6AC3
:10056000E0726FE1736BE07269DF746BE0736ADFF6
:100570007368DE746BDD7369DF786ADF796DDE7B4B
:100580006EDF8173E08878E18F7FE19585E19E8F52
:10059000E1A490E2AB9CE2B1A3E6BBADE9C0B2EB53
:1005A000C4B7EBC8BBEBCABCECCAB3904659863D96
:1005B0004D90495398505A9C5661A35E66AD616652
:1005C000B65D5CBA5755B95556B75155B14B53B096
:1005D0004C55BC5556B24E55A03F50973D5397478A
:1005E0005C8E455A8132477D2C457E2D4582364EA4
:1005F0009A4C5DA9616FA46474975367873F5471E7
:100600002A4667213F68203F671D3C77233F0061F2
:100610002142692546763554894F6AB6959ACCB001
:10062000A8C1A399A4696EB25156DC7664E89578A6
:10063000ED9F7EEEA380F1A580EA9978C067607196
:10064000284F5D234B5618435B1B445818436624C0
:100650004E61234E62214F6E35605417445A1A4B37
:100660007840675214466427597D467A8D5F8A50D8
:10067000134670346587527649124171335E763E77
:100680006C6B34678E5D8D794472692D5350123DC9
:1006900055193D561138631336751B39932D40A6F5
:1006A0003B47B84A4CC14C4CC75252CB5757D05A13
:1006B00058D15B59D45D59D55F58D45D57D65C5736
:1006C000D9635EDB6661DD655CDC645EDD6964DF29
:1006D0006A62E06A62DF6C65DE6C67E0706AE07136
:1006E00069DF7069E0726ADF7069DF7469DE6F6408
:1006F000DE6F64DE6F67DC7369DD7669DE786CDF80
:100700007C71DF8174DF887BE18F81E19586E19EDA
:100710008DE2A594E2AE9DE4B5A6E6BBAEEAC2B614
:10072000EDC9BBECC9BBF0CDBBE0B8A584334889AB
:100730004150934B559C525B9E59609F5963A65CF8
:1007400065B05E60B65656B95456B04C53A849537E
:100750009F4251A44754AA4A549C3D4E8D3349911F
:10076000394F98495C8D40558233498231477B2E01
:100770004884354EA05366A45F709F5D6F924F62B0
:100780007F354E6F24436B2040681C3D631A3B004D
:100790005F1B3D742E4A85425C945E74B49798C486
:1007A000A7A0B9958F9D5C63B45053DC7765E7953E
:1007B00078EC9E7DEEA27DF1A67FED9878D3756AE8
:1007C000772D52581743541541591C43591A456502
:1007D000244E611F4C5F1E4A6C335F5818455E21E2
:1007E0004E733B665B1B4B6E30658C5B887B416E4A
:1007F000511849783D68612B59591D4E7D477268E3
:100800002B607F4C7D8C5D898D59826629535115F3
:100810003F56194258163E5812375C10336316384B
:10082000761E3B8F2E40A23744B6424CC35054CD67
:100830005656D05957D25D5AD35E5AD45D58D55FBB
:1008400058D8645EDA635DDB6760DD6760DE665F33
:10085000DE6B64DF6B65E06B64DF7069E0716BE039
:10086000736BDF706BDE7066DF6F65DD6D64DD6C92
:1008700062DF6E62DE6D62DB7067DD7669DE7A6E86
:10088000DE7F74DF8579E08A7DE19081E29D8BE2F5
:10089000A492E3AB9AE4B2A2E6B9AAE8C0B2ECC56E
:1008A000B8EECBBEEECCBFF1CEBBC8918A8638493C
:1008B0008D4451954C559E525BA0555D9A515F9A5F
:1008C000525FA65861AE565AAF4F57BB5958B95EE2
:1008D0005A9A40508E384B92384B96394A9032444F
:1008E000852C469340559C506192465783324679F9
:1008F0002843772745944459A05669A35E719955BA
:100900006B8A445D772C476F24416F2341631B3F03
:10091000006B22408B475B8F4F659A6A7CB99C9D28
:10092000C6AAA3B6938D954F5AB54F50DC7A68E6A8
:100930009777EC9E7DEDA27CEFA57BEC9874C56863
:10094000659246636221495416405A1D475D1D4613
:10095000611F495D1B455A1A45672B55571844615D
:10096000214D753D666224526D315F844D7863245C
:1009700051571746753A62521643713F676E336599
:1009800063285B7C457F9C779C6F3360652952515F
:10099000103A58183D55153C5813395D14376E1CE4
:1009A0003979243C6C1A3A611C3E7523429F3648C3
:1009B000B8464CC65253CD5858D15A57D4615CD61C
:1009C000605CDA665FDB6660DB6661DF6961DE6999
:1009D00063DD6865DF6E67E06D65E07065E0736A32
:1009E000E07369DF716ADF6D65DE6E67DB6A63DDA8
:1009F0006C62DD6C63DD6E62DC7267DD7669DD7A08
:100A00006FDE8074DE867AE18B7EE29585E29C8AD9
:100A1000E2A393E4AE9DE5B6A8E8BDAFEAC3B7EDA7
:100A2000C7BDEECAC0F0CDC0F1CEB5AD696D8F3F88
:100A30004C964A549A4E569D50599A4D59974D5A34
:100A4000924657974A5A9E4A58A34554D7846FE80E
:100A5000AD7CCC7B5F933B4B8533497F2944862F0C
:100A600046862F4687304A9A475BA2556492435484
:100A700082344C77284583304998495EA25A6C9C51
:100A80005569914A5F7C334C702744772B476B2321
:100A900043007C334C9852649D5F70A77A85C0A355
:100AA000A2C5A8A3B5928B914B58B55052DC7C6C73
:100AB000E69779E99D7AECA17BEFA77AED9875BD71
:100AC0005D5EA65A706F2951561743581B465D1C30
:100AD000465C1B465C1A466120475C1C4654164324
:100AE0005B1F4C7437635F26536C315B72345C530D
:100AF0001642591B4B783C646122516C325E61286E
:100B0000576E3366814C7C875A846B2F5873335BE6
:100B100055153E56163C59143C511037520D35644C
:100B2000183A892F44A53D48AE414796313F651696
:100B300038721F3EA83E49C24F51CF5A56D65E5911
:100B4000D9615BDB665EDC675FDC6860DE6964DFA1
:100B50006B63DF6965E06B65E16D66E06E66E06FB3
:100B600068E06E66E06D65DF6C64DD6C67DC6C63AD
:100B7000DC695FDC695EDD6F66DC7468DD766ADE29
:100B80007D70DE8376DF8A7AE1907FE29284E19C59
:100B90008BE3A898E3B1A3E6B9AAE9C0B3ECC5B862
:100BA000EEC9BDEFCBBDF2CDBEEECAB298445395AF
:100BB00046529E4D56A04F559E4D579849549446C7
:100BC000568A3C5086394F8B3A4D9C3F51DD98797F
:100BD000F7CA94F2BA80D079579D40487923407380
:100BE0001E3F7E2B45812942872E489A45589E4EAE
:100BF000608F42557E2F4B82304B8C3C539E536608
:100C00009F556A924A60884054762C4875294770EF
:100C10002747008D3E52934457985568A97E87C058
:100C2000A6A4C9AFA6B7938B8D4454BA4E4FDE7DB0
:100C30006CE99777EB9F7BEB9F7AF0A67AEC9B7140
:100C4000BC5F60AB596E79335759184357174159F8
:100C500017415A18425815415F20495C1D485819E0
:100C60004557174362264E61254F61244F62254F39
:100C70005618455C1D4863245063234C6426546712
:100C80002A596A2B5B713A67855782936D9864295C
:100C90004E5D173F55163E57163D56133A4F0D37CA
:100CA0005D1439731F3C8E2F42AF414AC65452C364
:100CB0004E4E84253B5D1339983546CA5554D45C55
:100CC00059D8605BDA6660DE6660DC6965DD6962A2
:100CD000DD6965DF6864DF6A66E06F68DF6B65DFCA
:100CE000706AE06B62DF6C65DF6761DC6862DC6B39
:100CF00064DB6D65DC6B63DD7267DD7568DD7A6E04
:100D0000DF7E71DF8679DF8D7EE08D7DE39A88E37B
:100D1000A48FE4AE9DE6B5A6E8BEB0EBC3B6ECC7C3
:100D2000B9EFCABDF1CABBF4CDBCDCAD9D903A4968
:100D30009B4A55A55358A252579C49539646548DE9
:100D40003C4F8032477328446A1D3F842D48DF970B
:100D500071F4C186F1B97CEFB172E49967A64C4A8F
:100D60006D1B3C6D1B3D8028428126418B334A9D83
:100D700047589C4A5C8A3A5182314A86344C9342A5
:100D80005A9F566B984F688A425980354F70244459
:100D9000712A48008F3F508D3C4F8B425BA3737F7D
:100DA000C5A6A0CBAEA2B08985863A4DB94F50DF1B
:100DB0007E6BE89777E99F7AEA9D7AF0A67CEB98BC
:100DC00073CB6661A95A6E7F365A5613415C1C4636
:100DD00064234B5C1B435717415B1B45591B475D05
:100DE0001D4965264E61224D69295465244D5418CC
:100DF000435216405919435A1A446A2A525E1D49F1
:100E00005315477743729674A29876A483487D95CC
:100E10005E8258183F5B163B57133A5412395410F0
:100E200037550F386011378229409A3645BF4D4EED
:100E3000C75252C655518D2A3F62183D9E3A4AD13B
:100E40005C58D8625BDA645EDC6560DC6B65DD692A
:100E500064DF6964E06964E06C67E06D68E06E68B7
:100E6000E06E66DF6A60DE6A62DD6860DD6860DD54
:100E70006A60DC6960DB6E66DD7369DE7569DE7F82
:100E800070DE8175DF857AE08F7DE29682E49D8A4F
:100E9000E4A994E6B3A3E7BAABE9C0B1EBC5B6EDFC
:100EA000C7BAEFCABDF2CCBFF4D1BABE807F9341BE
:100EB00051A04F59A55158A14E569A46548F3E50B5
:100EC00083344C7226445F183C4F103C782644E82B
:100ED000AA77F4C37DE09463EFB87FFAC887E8A5EA
:100EE0006D9E3D43741C3D792140882C44842B43E6
:100EF0008E364EA14D5E9A4A5C89384F87364E8BAE
:100F00003A50994A5F9F566B8E455B80354F7427E8
:100F1000446D224100691D3C722441732849A57823
:100F200081C5A7A5C8AAA3AB82817D2C45BA505123
:100F3000DF7E6DE89678E99E78E89C79EEA37AEEFC
:100F40009676CF6B60A2556B7B2F535917445A1975
:100F5000445617425E1C475F1E475D1F49561843A3
:100F600060224D5B1E4A67294F64224C61204A5F14
:100F7000204753153F54164061204A5B1C485416C5
:100F800046713C71997CA893709F88528483487AFB
:100F9000874C7352103B621A3D5812395B153C5610
:100FA000153C551137580F3869173B892C42AE4212
:100FB0004AC64E4FC95251C6535080223C6A1B400C
:100FC000B24D54D55F59DA665FDC6661DB6764DD7C
:100FD0006864DE6864DE6967DF6D68E06E69E06C36
:100FE00066E06B63DF6A60DD6661DD665EDC6A6158
:100FF000DC685FDB6C65DD7065DC776CDE7C6EDF8A
:101000007F73DF8475DF897AE0917FE39D88E2A3B7
:101010008EE3AC98E6B6A5E8BCAAEBC2B3ECC6B9C1
:10102000EEC9BBF0CCBEF3CFC0F2CFB5A3556198EB
:101030004752A14F58A04B55994552923B4D87308E
:1010400045762642631A3D57133B531239782A4896
:10105000D79676F0C083E19B65E8A878FBCE92F93D
:10106000C884DA855998344379203F8527439033E3
:1010700047852A45973E53A24F5F9846588F3B516C
:101080008B3A519443589D506493495E7F344C6E23
:10109000213E69193A00500F384C0A345B1743A5BA
:1010A0007E87C4A4A1C3A39DA5787B7A243FBB4EB1
:1010B0004FE0806CE89577EA9C79EB9D7BEEA17D13
:1010C000EC9475DC7360A04D65893D60621F4B5BDD
:1010D0001A4355143E53123F5F214D66254E541757
:1010E00045662852561B496A275069285164234B8C
:1010F0005515405C1B455E1F4A5619445017476EF4
:10110000386F8B5C919878A1845587874C7C8E547E
:101110007C6E2A4F55153D5F193E641C4058143AA9
:101120005A15395710375810375E123A76213D9BC1
:101130003845BE4C4EC85452C75555BE4B4B691529
:101140003B873048C4595ADB645DDB645FDC66650D
:10115000DD6867DF6A65E16B66E06A66E06D67DF40
:101160006C66E06961DF6860DC665FDC655DDC68D9
:1011700060DC6B62DE7069DE736ADE786DDF7B6D6A
:10118000DE8176DF8778E18E7DE09482E29D89E3DF
:10119000A893E5B09EE7BAA9EABFB0ECC4B6EEC822
:1011A000BAEFCBBCF2CCBFF5D0C0E7BEAC8E354AAF
:1011B00098424F984350943C4C8E374A862F44793E
:1011C00028427324416F243F6D243F803749A45641
:1011D00056C67262DFA374DB9366DF986EF8CB9518
:1011E000FCD194ECA86BC45A4E922E427C1D3C92CA
:1011F000304693324690334A9B4355A14C5B933E15
:1012000053944155933F549B495D954B608A405799
:101210007326416A1B3D004B0B344B0B35601D4759
:10122000A67F8BC2A5A3BE9F9A9C666E76213EC008
:101230004F4EE17F6BE99676EA9B7BEB9D7CEF9FBF
:101240007AED9372E27662B3576A83385C66224C19
:10125000561742601C4356154154174563244E5C93
:101260001F4A642752551E4B69294F67254C5A184F
:101270004254143F5A1943581845612D5C69366A27
:10128000834F8796729D78487A672B5C6625556BED
:10129000285983547C6F2D5574345760153B5A116F
:1012A000375F183D59153B59133A5910366A1B3CA4
:1012B000892E44AB424BC75352C75253C95654A709
:1012C0003D496D1D43A74753D6615DDA635ED9641E
:1012D00063DD6966DF6D68E16F68E06965E06C6435
:1012E000E06B61DF6A64DE665DDC665EDC665FDBE8
:1012F0006A62DD6F66DE7168DF766EDE796EDE80D3
:1013000075DF8577E08A7AE09381E09885E29F8BAC
:10131000E4AD96E5B2A0E7BBACEBC1B2EEC5B8F068
:10132000CABBF1CBBDF2CEBFF5D1BED199908B3205
:10133000468C384B862F468730448836488D3A494C
:101340008F3E4C92455295505A9D5862AC6A6DC47E
:101350007D71D28C72CB7D64C8765BD27F61F3C322
:101360008FFCD69FF5C282DD7F58B6494C98324437
:101370008E2F459F3E4D9937488B2F46A046579E4E
:10138000485A96435793415596465B994E6390450C
:101390005B7B30496B1B3B004E0D364C0B386A2A89
:1013A00051A57F8CBC9FA0B896938F55617D254039
:1013B000C35351E3836CEA9879EB9C79EC9D7AEE08
:1013C0009F7AEB9071DE7160BB636F7E3557621E52
:1013D0004852143F5D1B445A1B45561842581A4741
:1013E00062244E652550591F4C6C32575F214A5775
:1013F00015405D1D455212406429545D1C485D1E18
:1014000052804E80865A8764285452184765325A53
:101410006F3A676F38698247768A5B785B12396604
:101420001A3D59153A61183A5E143A580E3661164B
:1014300039722140963243BC4B4FC85253CB5A5B52
:10144000C857567D254590354ACC5C5CDA645ED938
:101450006664DD6967DE6A66E06D69DF6E69E06BB0
:1014600065E06C64DF6963DC665FDC6761DC6963CF
:10147000DC6D67DE716ADE776FDF786EDF7D72DECE
:101480007F75DF887BE18D7BE09582E19985E3A61E
:101490008EE5B09BE7B5A3E8BDACECC2B4F0C7B82D
:1014A000F0CABCF1CCBDF1CDBFF3D1BBD1867A96E9
:1014B0003D488B36478D394496454FA05159A55C20
:1014C00060AD6869B16E6EB37472B47776B97B77CC
:1014D000C67D71D1866FCF795FCB6E56CE745CEAD4
:1014E000AE81FAD49EFBCE8EEAA469CA5D50B245A5
:1014F0004C9B36489B394AA5424C8E2E4691354A24
:10150000A34A5A9E4556974457923F569A4C5F932A
:10151000465A883D54722440004F0E384C0D3A68AC
:101520002C52A7848FB99E9DB3918F8F54627A22DB
:1015300040C55653E5856EEC9979EB9B79EA9E7A26
:10154000ED9E7BEA9072DB726AC774797F33575DD8
:101550001A4652144264244D66264C571B455618B1
:101560004356194767275465254F5F234D6726501B
:1015700060224D62234D5A1A475B21506E336057EB
:101580001749764470692F645B26516A3665876512
:101590008F6B3261682D63916999A990B0642B506B
:1015A000661A3F58153D6A1F3F5F183C60163B5C4A
:1015B000153A65153A872941AF444DC65154CD5B64
:1015C0005BCD5959A43C4B7E2A48B54E56D8605F36
:1015D000DA6565DD6968DE6B68E06D68E16E68DEBE
:1015E0006865DF6A63DD6861DB6561DE6761DD694F
:1015F00062DC6D6ADC716CDE766DDE7971DF7C72C7
:10160000DE8277DE877BDF8D7FE09883E2A18AE34D
:10161000A991E6B29FE7B9A6E9BDADEEC3B4F0C8A3
:10162000B9F0CABCF0CCBDF1CCBEEEC8B5CE6E618F
:10163000B5655BA0555BA65E61AE6868B7706DBCB2
:101640007975BE7E76BB8079BA7E77B67C77B678C0
:1016500074BE7872C97C6FD07968CD735FCA6F5CD5
:10166000E29C73F9D19BFBD398F2B97AD57055BE41
:101670004E4FB1454DA23C4DA5414FA13C4B903042
:1016800046993D50A74C589E4658923F5591405719
:1016900094465A91465B81344A004F0F394E0C3ABA
:1016A000733659AD8992BEA2A0B4908E8546597604
:1016B0001F40C65856E6866EEC9B7AEC9D7AEA9EF1
:1016C0007CED9E7BEA8F6DDD7870C46E7B72275057
:1016D0005B18424F123F55154367265276355A5DC7
:1016E0001B4353164464265062234C5B1D47602104
:1016F0004B551D4B6429545616435D2150682F5D90
:1017000064265A78427258255887689F8A659A8B52
:10171000679471376C81508192628F7B446F662D24
:1017200059641E41631B41681F406A1F40611A3E95
:10173000621C3F5E143A7A233E9D3746C04B51CB24
:10174000585ACE5D5CC05155772245A24454CF5CB7
:101750005CD96463DE6A68DD6A67DE6C6AE06965CD
:10176000DE6862DD6763DC6663DB6762DC6760DD61
:101770006860DE6D65DE736DDD7771DF7B72DF8043
:1017800075DF857AE08C7FE19081E19885E3A38D18
:10179000E4AD96E6B5A1E8BBAAEABFAEEEC4B4F0EC
:1017A000C7B6F0CABBF0CBBDF2CDBCD19F96BF5B34
:1017B00057C3786AB9756EBD7B75BD7C75BE7E7783
:1017C000C07F75BC7D78BC7C75BB7A75B47875B20A
:1017D0007372B3716FBE726ACA7060D2795EE2983A
:1017E00067E9A974F6CA94F9D49DF5C485DF855DCF
:1017F000C25151B94A4FAE434DA23C4BA844509CF4
:101800003A4A8E3047A54A57A54A579A45569040BE
:101810005495445A93465C8D435A004B0B364F0EF9
:101820003C7C4160B18E97C2A3A1B2908C7C394FB1
:10183000711C3EC85C58E78970EC9B78EC9F7AEC91
:10184000A07AEDA07AEA9272DB776DB05E77621AC9
:10185000455F1B4557133F56133F5A18455A1C48BE
:1018600067285157194665265166284F5F214A5708
:1018700018445C1F4863254E51113E5E1E49591B9A
:101880004F753E6A5B2459743C757B4679885D8E42
:101890008B629388598C9D739B66244E6C34595F80
:1018A000183C5A1A406D24446623446B2144813805
:1018B0004D6A20435F143B6B1A3E913244B4454D50
:1018C000CE5858CF5E61CC5C5C8326439B4052C7A8
:1018D000575BD9605EDB6565DD6766DD6965DF6A7C
:1018E00065DF6C66DC6764DB6460DB6562DC6A6450
:1018F000DC6B64DD6E67DD736EDD7771DF7F77DF54
:101900008279DE897FE18F80E19482E19C88E4A87E
:1019100091E5B298E8B6A3EABCACEDC2B3EEC5B5AA
:10192000F0C8B8F0CBBDF1CCBFF4D0B99B6271B2B6
:101930005253C97B6FC28278C18277BF7C75BF7CEE
:1019400075BD7B72BC7A73BA7874BA7875B57673E4
:10195000B17070AD6D6FB66E6AC76B5DE6A075F65F
:10196000C58AF6C185F7C892FAD5A1F6C98EE49763
:1019700068C85852BF5152B54B52A5424DA9404B71
:10198000AB454D9835479C3D4FA74957A24B5B96B9
:10199000445996465B91415A924760004707324E40
:1019A0000D3B854E6AB7969BC3A3A1B58D8B77334C
:1019B0004B6F1839C95C56E98B72EE9B7BEA9D7CB4
:1019C000E89C7FEA9E7FE98F70DC766CB4627B6571
:1019D000234D57164459184258153E5D19425B1B5A
:1019E000445A1C465D1D496B2C5574345A5B1A468B
:1019F00061234E5B1C465D1C465816435D1D4B5DC6
:101A00001C4F7D426D571D4D50144C7B4A8092688F
:101A100095956D9C92618C7437635A1A4065294F75
:101A2000702A446A2D4F8C4E6E9256779558757E6B
:101A30003757681C40671C4063173D802642A53C11
:101A40004ACD5656D05B5DD05C5E9631478B314AAD
:101A5000BC4E57D85D5CDA6361DB6363DD6965DFCB
:101A60006A67DE6762DD6763DB625DDC645FDC68DA
:101A700064DD6E66DC6F69DF7670DE7B74DF7E7737
:101A8000DF8479E0877DE19282E29488E2A38DE4AD
:101A9000A995E6B39EE8B9A5EBBDADEEC2B3F0C51E
:101AA000B5F1C9BAF0CDBEF3CFBFF1D0B5712E50AC
:101AB000A84D52C8786BC27F72C48477C07D72BE55
:101AC0007C75BB7A72BA7870BB7871BA7973B57667
:101AD00073B37271AB6B6DB06A68C36B62ECB38742
:101AE000F7D09AF6C58BF6C791F9D5A3F9CE97ED45
:101AF000AD74CE6655C25554B54A4FAB424BAD435B
:101B00004CB54B4EAC474E9C3B4A9F3E4DA44D5B63
:101B10009C485A9645598E3E558D425B0048073287
:101B2000510D3B8D5C76B6969DC1A2A1AF868576A0
:101B3000314B711738C95F5BE88B72EC9D7CE99A79
:101B40007DE59A79E89B7CE48C76D9756EAB5E7AFC
:101B50006523505A194855164058153F5B18425D89
:101B60001E4E6D2F5B591C497537627A3A605619C3
:101B7000445A1C486A295056154054144261214E5B
:101B800059194C7135625B1D4D61265A875B8E98E1
:101B900073A49E77A08D5885834C75977397A88101
:101BA0009D91638C874C707632556920446D21433A
:101BB000762C49681E41691E3F62153C731E3E9299
:101BC0002F43C45151D05A5ACF595AA137477E2773
:101BD00044B24953D65B58DA615EDA6161DD68650B
:101BE000E06C66DD6662DD6660DC6360DC6763DCDA
:101BF0006A65DD6D66DC716CDD756EDF7C74E082BC
:101C000079E0877DE18C7FE29384E2998BE4A49074
:101C1000E5AF98E7B39CEABBA7ECC1AFEEC4B2F066
:101C2000C8B7F0CCBBF2CEBFF5D1C1E3BDAA4C0B17
:101C3000359A414ECC7566C58076C28177C17C727B
:101C4000BE7B72BD7971BB7973BC7871B87872B59F
:101C50007473B17172AB6D71AF6868BC6762E8ABE9
:101C600084F7D19DF6C990F7C891F9D3A2F9D29E15
:101C7000F4C285DD845FC25954B6494DAC414AA9CE
:101C8000444FB34C51B65154A544509D3E4EA348C9
:101C900056A24D5E98495B914056863954004907DB
:101CA0003254103E915B74BA9AA0C3A39FAD838354
:101CB0006C2442721737CE6258E88B73EE9F7BED2F
:101CC0009E7CEEA17EEFA17AEC916DDF7264AA5743
:101CD000645F1C4C63214C57154157163F5A133D06
:101CE000581642531446804C777D436C73365C50D3
:101CF0001442571A476F2C535A1840500E3B5F1F1F
:101D00004C571747672B596229618C6293753F794D
:101D1000845990A17AA49F789C9A6C979E6D99AFF4
:101D200092AA71435F62294B6A20406C1E41702168
:101D3000416A1F42682041661E4163183E661B408F
:101D4000812945B84A4ECF5859CD5758AC3D4979AD
:101D50002444AB4551D45755D95E5EDB6561DC67E1
:101D600063DE6762DD6660DC6661DC6964DD6965CF
:101D7000DD6D69DE706BDD7470DE786FE08077E0BA
:101D8000847AE0887DE18D81E39889E49E8CE4A6E5
:101D900091E5AF99E7B69EECBBA8EEC2AFEFC5B434
:101DA000F0C9B9F0CCBDF3CFC0F6D5C0B786844634
:101DB00006358E3B4DCD7366C78177C47E74C27F76
:101DC00073C27D72C17C73BC7974BC7872BA77734C
:101DD000B47270B37170AD6C6EAD6667B56161E180
:101DE000A07CF6D2A3F8D19CF7CA94F7D19FF8D380
:101DF000A1F8CC93EBA872C65F50B0454CA63E4A02
:101E0000A63E4AB24B52B85355AA47539D3E4FA1E6
:101E10004554A54E5C9C4B5E96495F8B3F560049EE
:101E2000073257123F97667DB798A0C2A1A0AB7F3B
:101E30007F631C3E731A3ACD635AE88C72ED9F7A29
:101E4000EC9F7CECA07BF0A17AED8F6CE1705FB72A
:101E50006D73581D465E1A4761204A591640581442
:101E60003F57144054134051154B946693864C7160
:101E70004E14415B1D4565224C5F1D48591A485957
:101E80001A485718496B2E607641758C5D8C652B0E
:101E900061733E76A080A9A283A98C5E888854884D
:101EA000976F99996F977E547856153E7C2A45799D
:101EB0002845661D41661D4062183F651B42601E35
:101EC000466E1D3F973347C64F53CC5859B4464DC5
:101ED000701A3EA84451D25857D86062DB6361DC67
:101EE0006664DD6562DD6563DC6664DC6661DC6A50
:101EF00064DC716CDD726CDD746DDF7B72DE7F76AD
:101F0000E1867BE28B7EE18F82E39B87E49F8CE519
:101F1000A991E6AF97EAB69FEEBEA9F0C4AFF0C8AC
:101F2000B5F0CBB9F1CEBFF4D2C2F4D7BB85465BD6
:101F30004D05327F2D47D07668C67F73C78174C345
:101F40007F76C27D74C47E72BF7B73BC7771BA76B4
:101F500072B77270B37172AE6B6EAC6C70B0646756
:101F6000D68A72F5C99CF8D0A0F6C692F7CE99F839
:101F7000D4A1F8D19AF3C083D67E5CA94249A33C90
:101F800049A13C4CAF4750BA5255B651579E4051AB
:101F90009C3C4EA54A56A34C5C9A4B60954A5F0008
:101FA0004C0B3761204B9C6E81BC9DA2C0A09EAAA9
:101FB0007B7D5F1B40771D3CCE655CE78B74EE9E9E
:101FC0007DEB9F7CEE9F7BF0A17DEC9071DF7164D7
:101FD000BB6F7C71365559194756194660224B5CC8
:101FE0001A415614405A1B455517467841748B5870
:101FF0007D4E0F3F702D525B18445C1B475D235094
:102000005A1B4A6427586F366B824E82804E82710B
:102010003A737A4780A27FA99F79A194688B54195B
:10202000457F4771B094A04C113F511440802E461B
:10203000823149641C425E1A426219416C26485B37
:10204000153E66183C832841B3434ABB4A50AF4211
:102050004B6A163BA24353D05659D85F5ED95E5E99
:10206000DC6664DD6763DC6864DC6660DC6963DB56
:102070006C68DC6F6CDD726DDE7670E07E73E08123
:1020800078E1867AE18F82E19584E39B8AE4A48FEC
:10209000E5AA95E6B096EAB89EF0BEA8F1C4AEF007
:1020A000C8B6F1CCBAF3D0BFF6D5C3E1BDAB611170
:1020B000395609326E1E41D27D6CC47A72C6827462
:1020C000C58375C47E71C57E72C27A72BC7B76BAD6
:1020D0007675B67171B67272B07072AE6C6DAE66B6
:1020E00067C26D66E8A881F4BF8EF6C08DF8CD9703
:1020F000F8D3A1F8D29DF8CA90E6A771B34F4EA0CD
:102100003C4CA03C4BA74551B14E56B85457A8463D
:1021100051993D4FA04352A84A569D475B9C51653B
:10212000004B0B3769244DA3798ABCA0A4BF9D9DA9
:10213000AE7E80661E3E761D3BCF665EE58975EC01
:102140009E7CEC9D7AED9D7BF09E7EEC8E70DD6F2B
:1021500060B4616975355752164353133F5E204A88
:10216000611E46571641571A455515426725558C2D
:102170005A845919466C29514F0F3C58184A7839DE
:1021800069773B6E65265B763D7485548683518303
:10219000733C737F4A7FA484B0A484A77D486F6298
:1021A00022538E5480CAADB452143F4A0E3C792754
:1021B00042802E4761183F5B17405F1B436F2543EA
:1021C0005D1740621B41731E3FAC434CBC494DA29E
:1021D000384468153BA24151CE5457D85E5DD75A5A
:1021E0005CDA6464DB6361DD6665DB6B68DC6C684C
:1021F000DC6C68DE7572DF7570DF7871E07E74E02C
:102200008478E1897CE29182E39888E49E8CE5A45D
:102210008EE6AC93E8B196ECBA9FEFBFA7F1C5B0DC
:10222000F1C9B5F3CCBAF5D2C1F5D7BEA26B775FD1
:1022300010385D0D3564123BD28276C3736BC88350
:1022400074C77F72C57E72C27C74C07D76BE79769B
:10225000BB7875B97372B87475B47375B06F72ABBF
:10226000686CB46361CC786BE59F79EEB582F4C796
:1022700094F7D29EF8D19BF7CC96F1C087CC775AD1
:102280009A3A4BA23F4F9E3E50AA4653B14F57B287
:102290004F559E4050993C4DA64653A34A5B9B4CDC
:1022A00061005410397C3D5DA68090BB9EA2BC9914
:1022B00098A9757A6E20417F2541D06663E78A76BA
:1022C000EC9B7EED9D7DED9E7EED9C7AE98A6EDE37
:1022D0007164BF7881813C594C0F3D5415405817AB
:1022E000426E3056571743581F495A1944631E51BE
:1022F0008E56825E224C601C46500F417637645BDE
:102300001D4F713569783E72753C727F4A7F6E3819
:1023100072825387895385936798A88CB29C6D8F7E
:102320004E134788547CBB97A04F133F4C0E3B7510
:10233000274375254363183D5B143D5F1943742D96
:102340004C601D43601A41711D3EA13A4BC5535468
:102350009B354463123B993E54CB5356D85E5FD6AF
:102360006162D96166DA6464DB6967DB6C69DD6CC4
:1023700068DB6C6BDD6F6DDF7672E07A73E081761F
:10238000E0877CE28D7EE39282E29986E5A08BE68F
:10239000A78EE8AF94EBB495EDBA9EF1BFA6F2C458
:1023A000ADF1C8B3F4CDBAF6D5C2E1C2AE651F44F3
:1023B000681B3E68163A5F103CC87871C37169C6E5
:1023C0008177C57F74C47D74C17B71C07D75BD7913
:1023D00075BC7775BA7777BB7677B77475B2717459
:1023E000AE6D71B0686ABD675DD27A5ED88965ED01
:1023F000B786F6D19FF7D09DF7CE9AF5C991E0A0A8
:10240000729D3D4A94354B9C3D4F9D4252A7495683
:10241000B25057AC49549A3C4EA04251A84958A1D9
:102420004B60006D284C965F76A98391B79A9EB950
:102430009092A2656C6B1B3F8B2C43D16561E68A41
:1024400076ED9C7EEC9B7DED9E7CEE9C7CE988701D
:10245000E07F75B9748473294D4F123E53143E5872
:10246000163F5F214B63234B612047571744591890
:102470004B884B7B6828535818485D214E692E5E67
:102480005920547D457565295E6F33686D336C7CCA
:102490004E838856889669939974A4A383AA9F5FF4
:1024A00081743759926086B1828D4D0E3B50113E3A
:1024B000772A456F21426418405A1841621A4270C7
:1024C0002747601D445B153D7526418E3149C25337
:1024D0005691314469193F9F4355C14B56CE5C61BB
:1024E000D76162D86163DA6768D96A69DB6968DCD9
:1024F0006969DB6B6DDC6F6EDE7570DF7B72E185A9
:1025000079E1877CE38F7EE39985E39C87E5A28C64
:10251000E7A88DE9AF93ECB598EEBB9CF1C1A6F3AB
:10252000C6AEF3CAB5F5D0BEF1D3BC975E6F5D12EF
:1025300039731D3B6F1C3F631440C17070C77267D5
:10254000C67E74C47F74C27F74C17C75C37D77BF3F
:102550007B76BD7B79BC7878BA7677B47375B070CA
:1025600074AC6B73AE6A6EBE6C5FCC7256C7685447
:10257000E6A478F6CF9EF6CF9DF7CF9AF6CC98EAF0
:10258000B584BE6156852D4B963D4F9C3E50A04173
:1025900051A54757B2535AA94A549F4151A1425499
:1025A000A24A5B00955C73A57687AD8995AE8B9743
:1025B000AE7E86984F5B6A173B8E2F43CE6360E4F6
:1025C0008975EC9B7DEC9A7BEC9A7AED9B7AE78897
:1025D0006FE17F7AC58692AA65724D0F3D55143D15
:1025E000611E46611D46702C5461204B6828505F67
:1025F0001B4871315E63244D5415425E224E561ABB
:102600004D7748726A3164632A5E6B316874407634
:10261000814C838B598B9E7AA5946D98956C978984
:102620004A79AA798C74376090617E541847541B9C
:10263000487A2F4E6A2448611D465B1D4861204838
:1026400071294B602049611E46792C4A812D4CB17D
:102650004A537A26466D1E44A44959C95559C25356
:102660005CC6595FD76368DA676AD8686BDB6A6AE9
:10267000DB6C6ADA6B6ADB6F6CDE7773E08077E1C4
:10268000887CE18E80E39384E39C87E4A08BE6A7BB
:102690008DE9AA8FEBB394EDB99BF0BEA1F2C4A96A
:1026A000F3C8B2F4CCB8F3D1B9B4898D6A1C3D65D6
:1026B000153A7A26407B2643691C46B1676BCA757A
:1026C0006BC47D77C68277C07F78BE7B74C17B7612
:1026D000BF7B77BD7877BA7778B87476B37175B009
:1026E0006D72A96B73A7656CB3655FC56C56BF5EF1
:1026F00051D7896BF3C996F6CF9BF7CF9BF7CE9B4B
:10270000EEC08CD9906A8F374A7C28479D3F4F9CFA
:102710003D4E9B3E50A94854B15358A14654983C55
:102720004EA2455400A27183AA828FAE8994AB7BDE
:1027300088A15F6B8A364A64153B8E2F45CE625F57
:10274000E58977EB987BEA987CEB9778EE9A79E7C6
:10275000876FDD7A7DDBA69D9343616A234E571612
:10276000445815415615426827525A1B487A3B6215
:1027700077335B69285767285B763E6E7F466C55DA
:1027800012498A618D602456662C62662D667C4AE9
:1027900080804E84976E9E9A76A6A188AC6F396D24
:1027A0008D5E78804C77986582732B535716415312
:1027B0001644792D49671C43601C455A1D46621D0D
:1027C000446D2848601B435F1C457228487D29479B
:1027D0009D3C49691A3F762544A44454C55056CEC1
:1027E0005B5CC7565DCB595FD7696BD96668DA6A9F
:1027F0006CDA6C6BD96A6AD96B6FDC726FDF7E78CA
:10280000E0877EE18F82E39A89E4A38FE6A792E7CF
:10281000AE93E8B295EBB79AEEBB9FF1C1A4F3C5B6
:10282000ACF4C9B2F3CDB6BE9B98662349772C4968
:102830006F23437A2A47842E476B1C45A45969CEDF
:102840007B71C27C76C6827AC17E7ABF7C77BF7C80
:1028500079BD7B7ABB7678B77476B77273B06B70DC
:10286000AC6970A7656EA25C66B1605AC56A56AF66
:102870005151BE645EF0BF8EF6CE9BF7CD9BF6CE77
:102880009DF4C692EAB281AB575760133D88324936
:10289000983E4E95384C96394DA54852A4455197CF
:1028A0003D4E9B3E5000A67786A87D8BA876839FE1
:1028B0005B6A924455822D44651237913043D06251
:1028C0005DE48677E9927AEA9479EC967AED967CE3
:1028D000E88870D26663C88191AC5E7069284E50FA
:1028E00014404F113C4E0D3E7A3C6D935C8B71371A
:1028F000708651828043707536645F23566C3266F1
:10290000783868723D708A5E876C33656E366F7595
:10291000457A90649895699B9C7DAB9B6D957F40B3
:102920005F825780692D5A94637F6E2045621D46F1
:102930005517437F314A651D45611C445B1943614E
:102940001E46682749601E44601B416B224577265E
:10295000457F2C46651C427C2B46A34555C25258E8
:10296000C8545ACF5B60CC5C60CA6066D8676ADACC
:102970006E6FDB6C6DD8696AD86769D97071DB7866
:1029800074DE857CE19385E3A18EE5AD95E6AE9599
:10299000E8B399E9B49BECBBA1EFC0A4F1C3A8F2E2
:1029A000C7AEF0CAB3B2929562244868204580361B
:1029B000507A2F4A7C2944862F487521449A5267C1
:1029C000D17C70C57B75C67E77C27E79C17B76BDB2
:1029D0007777BA7677BA7376B76F71B1696EAD648F
:1029E00069A75B65A05661964958AA5459C2695AAD
:1029F000A64C50994051E7AF84F6CA97F6CA97F7AC
:102A0000CE9CF6CA98F2C492D4896C822E43641587
:102A10003B8832468D33478C3148953C4E9E415021
:102A2000953C4B96354A00A77582A56C7B974F6104
:102A300085354E812D4877203E6A173A953345D12A
:102A4000615BE58673E9917AEB947BEA947DEC9D7A
:102A500085E98E75D468609D3D58AD637A995C6A4E
:102A60005013404F133F531240612050864D74481D
:102A70000B3A601D508F56817B3B6A632A59531570
:102A8000498A5A868F62927F497F8C668F6A356E3B
:102A900084588F88558A8B65978E62979D688EA023
:102AA000728F712C5B926283702B547421436F225E
:102AB0004353113C7B2E466118415F18415A164022
:102AC000671F446420455D1841641C42681F4375BC
:102AD000294771214266193F7D2944AB4551BF50BA
:102AE00056C9575CCC595DCF5D63CE5E65D26668D2
:102AF000DA6667DA6A6BD96B6DD76C6FD76E6FD891
:102B00007472DD7E79E09084E3A48CE6AF96E7B33F
:102B10009AE8B79BEBBBA1EEBFA5EFC0A8F2C4AB90
:102B2000E4C1AE926E7F4E1741641B3F81304989EC
:102B30003B5382344C7D2B46882F467D2948914457
:102B40005FD48479C07676C07B78BF7772C07772A5
:102B5000B97172B86E70B66A6DAF6369AB5B64A52C
:102B6000535E9E4B589647568E4254994B59AD5DD5
:102B70005C9A4B558B394FE0A47FF6C890F5C58D14
:102B8000F5CA9AF4C899F3C795EEB789D9907290AF
:102B90003F4B65173C7F2A45832E46863249933842
:102BA0004995384A94394E009A586C8A3D53782991
:102BB00046691D416D1D4079203D741B39A23B497A
:102BC000D4675EE58875E89479EA947AEA957AEBB9
:102BD0009987E79A8EDA877594344B84335AA062CA
:102BE0007767274B4D124053144378325C68275265
:102BF0005715446C2A5984406D6C29585D225778CA
:102C00004A778F5D8E7C4D7D895C919B81A87A4D42
:102C10007D79447E82518A885E90824C849E739C2A
:102C2000AD79928552737F55795D1743762243754E
:102C300025455416437B2F485E18415F18415C17A9
:102C40003E661D4160184060183F611A426D244382
:102C50006E2042691E4167183C873048B14551C417
:102C6000565DCC595ECD5B5ECD5A62CF5F67D26850
:102C70006BD6676BD96A6DD96F71D86D6FD66E6F71
:102C8000D77170DA7774DF8A7FE29E8DE6B09AE8BA
:102C9000B9A2EABDA4EBBFA7EEBFA8E6BEAAB58C59
:102CA000906D395851133B4D0F3B681A3F88384F90
:102CB0008D3E54873951832F4A8E35497D2A488A63
:102CC0003C58D68A7BC06E6DBB716EBE706CBD6D9C
:102CD00069B76767B26166AB5862A5535DA34E578B
:102CE0009D4B589E4D599E535D99515C9C545F9FDE
:102CF00059639654619B5462E5AC85F6CA93F5C45A
:102D00008AF5C693F4C999F3C999F4C898ECB88DBB
:102D1000D58D728E384763163C6A1A3C76244189F9
:102D20002F46933649933A4C007025456B254764EE
:102D30001A4159153F60143D7F2740872C42B952F4
:102D400056D97065E68977E9957DE9957CEB977DA5
:102D5000ED987AE58372D68089C6887E83344F6F7A
:102D600029538045654C12436021507D375F6723AE
:102D70004F65235070325F6928575A1B4E77417454
:102D800094699B946D9878477B5F26608B619598DA
:102D900081A975447B805187956A96854D787D40E1
:102DA00069B2879C937096511C495D1D457A294AEA
:102DB0007D2C48581743742C495F1B455F1A4461AA
:102DC0001A41621A41601840631B43641C416D2222
:102DD000446D1F42661B3F691A3E8F3247AB41511B
:102DE000C5565DCF5F64CE5B62CC5F64D16466CF55
:102DF000666AD36A6CD86D70DB7474DA7877D875CC
:102E000074D77475D87675DC8581E19B8AE5AF9BB4
:102E1000E9B9A4EBBDA6DFB8AAAB858F7043645AAD
:102E20002249601E465A1A44591A436C24488F405E
:102E3000548E40588A3D5484314B90384E85314DE4
:102E4000833759D78E80C16F6DB16167B56466AE47
:102E50005B61AE585EAB565FA95760A55661A35A39
:102E600063A75E64AA656BAB686FAD6D71AB707381
:102E7000A86D71A16770A2626EE6B188F6D09AF66D
:102E8000C891F5C790F4C999F4C99AF5C998F1BFEA
:102E90008DE9B28BD8937C9A485260153E5C153E02
:102EA0007020418A304889334900621941621A40D2
:102EB00058123D55113B64163B8C3142953548C341
:102EC0005759DC766AE58C79E9987CEA9879EA9832
:102ED0007AEE987BE6856CCC5D5DAF5B78C59791AB
:102EE00083385B995A70531A49682955702D586A6E
:102EF000265369275363214E55164754144C825864
:102F00008998719E8C5C8C703266672A5E805083D3
:102F100086639A8357909678A69B77A2783865A0A7
:102F20007896986E93521B4A5217455A194579253F
:102F3000457E2D4754113D7126435E17415E173F74
:102F4000651B405F183E60163E6219406820426B68
:102F50001F416F2140681A3D701E3B8D2E439836ED
:102F600049B24957C15660CC5F67D26368D26D6F72
:102F7000D0696BCE6E70D66F72DB7B7ADC837EDEBF
:102F8000807CDD867FDD8A84DE8D87DE9690DFA4FF
:102F90009DCC9895996B7A68385C58244D59224B92
:102FA0005D1E486820445F1A41601C436A1F418AC5
:102FB0003A509040548F405588344C90374D832B75
:102FC000467E3054D48C80C97872AB5A5CA9545B6D
:102FD000AC585DB05E61AF6568AE656BB16C6FB3E8
:102FE0007172BB7877BB7E7CB97B79B57A7BB07820
:102FF0007AAB7273A46A70A0616ADDA787F6D2A16A
:10300000F6D09AF6CA95F3CB98F3CB9BF4C997F513
:10301000C794F2C290E6AB86CE84708D36455A14C2
:103020003D54133B64173B782441005A133E5D170F
:10303000405A133D57143E68193F93394AA64450ED
:10304000CA5F5EDD7A6EE68C77E9977CEA987CEC65
:103050009C7BEF9B7EE88971D464589431488B4007
:1030600065B370899B567652154777345E6F2A5444
:1030700068245068275462214F55184752145084D1
:1030800064939875A1763C726D316B855083875B34
:1030900091865E8E89619BA686B2A776A4AB80A33B
:1030A000956584511E4C551C4A5A1C485C1D477737
:1030B00026457D2B4657153E7026425F1A41601902
:1030C00040641B4062183E5F153E661B406F224203
:1030D0006F23447226446B1E427D2743892C43771D
:1030E0001E3E7B22408629448F2D479E394FAB459B
:1030F00056B45262C75A66D3646ED7707BDD777E52
:10310000E18083E38A88E08083DF7C7FD37177CBA3
:103110006C6AA9464D5A1B445B1F4B5A244F5C23D3
:103120004D5E1F4A6D2749651D42611A406B1F4362
:10313000903E549240558C3D5188354C8F384B858C
:103140002D4774274FD18F86D1837AB36867B062D9
:1031500063B86D6ABA7272BC7877BA7C7CBF817DC5
:10316000C1817DBF847FBC817FBA807DB67C7BB10D
:103170007979AE7577A96E72A0626DCA907EF3CF31
:103180009FF7D6A5F6CF9EF4CD9BF5CD9CF5CD9DB2
:10319000F5CB9DF5C998F2C394EEB789E19A74B75F
:1031A000655A7E2D405C123959143E005E16405E11
:1031B00017405B143F5B173F7422429A3D4CB24D5F
:1031C00056CF6461DD766CE68C76EA997BEB9A7C6F
:1031D000EE9D7DEF9D7DEB8C72D8695C9E35497FBD
:1031E000244699425B7A30515D1A48672B5C8643CE
:1031F000675E1F4E6423536C2E5D55194A5216515B
:10320000926A9A885A89662861743F7887588F91A4
:103210006BA29477AB94679EB07AA198557B88494E
:10322000636C2F5356214B581C485D1D475A1B4653
:103230006A1F457827445B17406D23425E1942653B
:103240001E435F1A4161183E651A3F6B1F406A2199
:10325000416C1E427023426C1F41832C446B193D0C
:10326000681337801D3B9F3243B9444BC34C53CC4A
:103270005A61D06068D86A6DDC7072DE757AE2815E
:1032800081E68B8AE7918DE58A86E48A87DE8283F0
:10329000D57477B8555A5B134064224B5B244E5962
:1032A000234D5F214A722A47661E41651A40691AFA
:1032B00040924053913A4D8C3A4D8933478C324875
:1032C000822E486B1E49CE8D88D6887CC37A74BF07
:1032D0007E75C48379C3837BC2847FC2847FC185AA
:1032E00080C0837DC1847DBE837CB97E7CB67C7AC0
:1032F000B27978B37776AB7174A3666CB97B74F1ED
:10330000C999F6DAACF6D3A2F4CD9AF3CF9EF4D1F4
:10331000A0F4D1A6F4CEA1F3C99CF2C696F3C3954E
:10332000EEBB8CE5A478CD7D63A14E4C005E153CD0
:1033300060193F5D133D5E1742842D46A44450AC96
:103340004652CC625FDB7469E68C77EB9B7BEB9C2F
:1033500079EE9D7BEF9D7CEA8B71D8685AA4374942
:103360008826469B405A9544666D255167255580B1
:1033700049705D214E54194B713563581B4D6425BE
:10338000608E5E8C733F7361265D82568F9776AB3D
:103390008E679D825593A06C9AC1698C8D41679010
:1033A0004E64814C64692B4F591C48611E465C1B5E
:1033B000466820457022435D173E6920425E1740F3
:1033C000671C3F5D153D63173D6D1E3E6E1C3D6ADB
:1033D0001C3F6E203F74244172223F7A213D6F14BE
:1033E000368A233AA7363FBD434ACE5559D35C634C
:1033F000D66369DA686EDC7176DD7577E27E7EE52C
:103400008F8DE68A88E78D89E58A88E7928FE28C3E
:1034100088DA777CC86A6A60133D6C2143591D477E
:10342000571D485F1F476E264464173D6A1F3E675D
:10343000183F8C3C5291394F8D3C50862F45872E3A
:10344000457E2A456A1C47CD918ED68A80C87D74F8
:10345000CA8A7AC98C7DC7887CC3837DC4857EC0B7
:10346000867FC1847EC1857DC1847BBE827DB97D1E
:103470007AB67B79B47977AF7372A56A6EAD6E72E6
:10348000EEC297F6D9ABF6D5A3F4CE9AF3CE9EF35F
:10349000CFA4F3D1A7F3D1A6F3CE9EF2C999F1C779
:1034A00098F1C597F1C597F2C295EEB98D005F15F9
:1034B0003C62153C631740611840852B45AA49536F
:1034C000AE4853CC6161D9756BE68B74EB9A7CEC9A
:1034D0009C7DEE9D7CEF9C7EE88874D8675CA73964
:1034E0004B8924469E4765A34C6D7E325F7D3A65CD
:1034F0007C3C645C1C4A4D1246763B6A56194C640F
:10350000225E8B648D7E508A895C949270A28F6457
:1035100098824F896F3B73AB638CB85B7E7E45703E
:10352000B2697ABB91896120485719465D1C465C97
:103530001C45631B416D21425D173F671D416218A9
:103540003F66193E5E153C6A1D3E6F1D3D6F1F4074
:1035500067193C72224071203E7B243E801D3998C1
:103560002E3EAC3B45BD454CCC5054D65B60D7613C
:1035700063D86569DA676DDB6D71DD6F72E17A7B47
:10358000E17D7EE47F80E68F89E8908AE68985E1A7
:103590008483DD797ED578747B27466E1E40551571
:1035A000425618435F1D456B22456A20426C1E3E01
:1035B00066163D8A374F8E354B8F3A4E8128438BA6
:1035C00032487823436E1F49CB8E8BD78B7CCA7CC5
:1035D00070CA8B7ACB8C7AC98A7EC6887EC5877D75
:1035E000C6857EC5857DC4887DC2847BBF847DB948
:1035F0007F7DB77C77B57A79B27474A66A6FA86656
:103600006DE8B790F6D6AAF6D6A7F4D2A2F3CFA269
:10361000F2CFA3F3CFA3F2D0A5F2CFA4F2CEA1F1C3
:10362000CCA1F1CA9DF1C99CF2C89CF2C598006278
:10363000194166183D66153C651439792141A64A41
:1036400055AA4856C96061D9746BE68A75EB9B7BB5
:10365000ED9D7CEF9E7FEF9D7FE78B75D86A5EA422
:103660003748872149AF5E7FA4446485395F6E295E
:103670005A7E436A5F1D484E13466E376761235377
:10368000581D5A9F85AC916B9D83578D9A7CAC8752
:10369000588D81518480558B9F587E7F4979975FE3
:1036A0008EC58698EBBAA4B06A635519475A1C4672
:1036B0005B1942631B426A1E425F1B41631D4363E9
:1036C0001A41601A42671E436C20427221416D1FED
:1036D000406B1D3E7525437023428528419D314135
:1036E000B03D47BC464DC74C54D2585ED65A5ED802
:1036F0006167DA666BDB666BDB686CDB686CDB6909
:103700006EDA696DDF7474E17B7CE28180E47B7A40
:10371000E27D7DDD7A7CD87074B0515A721F4058BA
:1037200016415516415B1A41651F436A2243641BCB
:103730003D64153B832F4A8D32488D37498129409E
:10374000863044711D3F6E214BCC8D88D78776CE55
:103750007C6DCB8978CB8B7ACA8A7AC6877DC788FD
:103760007DC8867BC8867CC5877DC0847DC0827D00
:10377000BD807ABA7E7AB87B78B47574A9696DA871
:10378000646AE6AE85F5D4A6F6D7A8F4D2A4F3D23F
:10379000A8F3D2A8F4D1A5F1CFA4F0CCA0EFCDA18D
:1037A000F1CDA2F1CCA0F1CCA2F2CCA1F2CB9F0042
:1037B000631C4167183D6B183B6C1739731B3D98B0
:1037C0003D4D9F3C4EC86061DB7971E68C77EC9E85
:1037D0007DEE9F7CF0A17CF09F7EE78975D6665ECA
:1037E000A0354885234BB66882A644619B49656233
:1037F0001D5189537A6D2D565615486B36696223D3
:10380000566126639C81AC8B5B92855E948E659934
:10381000743B7573417D9475A6985B85905581AA1C
:10382000638BC67887DC9B93E9A1818A4855581D34
:103830004A5C1D47621D456A20425E1940641B4078
:10384000601840661F446D21436E22407324416717
:103850001B407628487F3049762342952C42B03D64
:1038600048BC4349C2494FCB5055D2575AD75C5EEA
:10387000D96166DB676BDD6B6DDD686CDB6267DA17
:103880005F61D95D60D55D60D1565BD0545BD25726
:1038900060D5606ADB777ADA7077D16F6E903044EA
:1038A0005E174054143F5C163F6319416B24456515
:1038B0001B3D691A3C812E498B31498B37497D2547
:1038C000408430466E1C3F702850CD8A89D6807265
:1038D000D47F70CB8777CA8A78CA897ACA877CC92D
:1038E000877CCB887BCB897BC7877CC1857DC18367
:1038F0007AC07F79BC7D78BB7B78B87672AE6C6C11
:10390000AE6567E5AA82F6D1A4F6D3A7F3D1A3F2F8
:10391000D0A2F2D2A9F3D4ADF2D2ABF1CEA2EFCACB
:103920009AEEC897EEC99AEECA9EEFCBA1F0CBA251
:103930000067193E6C1A3C73193A751B3A751A3BAD
:103940008F3349A04254C96568DF8074E68F78EBF5
:103950009D7DEE9F7EEFA17DEE9F84E68C85D574E4
:10396000759F37498B2346A84E6DB86079AF4C6878
:10397000762C59794270793E6559184860285D6EF9
:103980003369763B768A649890639481508B7D4945
:10399000826B346A8A5C928A59918F5C92B47EA25F
:1039A000C77790CC6471CB9897CC746DDF9F81738F
:1039B00034535A1F4A5D1D466520465F1F44601BF5
:1039C00042631A42651D426A21426F2243782A46A9
:1039D0006419417E304C843448802641A63848BC66
:1039E000464EC64A4DCB5055CF5658D55C5ED85F33
:1039F00064DC6668DE696BE26C6ADE6765DC606108
:103A0000D8595AD6585BDD5457E25761E55F6FE8E5
:103A10006578E65E71DF5F71D87279D97674C360BC
:103A2000646C1E4357184259194261194061193F8D
:103A3000681B3D6B1C3E7A233F87304B8A34497F9D
:103A4000284383314965173D722953CC8988D57E37
:103A500070D7826FCC8576CB8A78CC8977C8867907
:103A6000CA897ACA8678C78578C4847AC38479C2B9
:103A70008079BF7F79BC7E7ABE7A76BC7874B1706B
:103A80006EB3686CE5A681F5CD9BF6D2A4F3D0A009
:103A9000F2CFA2F2CFA4F2D2AAF1D2ABF1D2AAF124
:103AA000D0A5F0CB9CEEC999EEC797EEC795EFC6AF
:103AB0009600691D41701C3F771F3F7D213F791C97
:103AC0003E8C334BA24558C9696DDF8276E7917908
:103AD000EB9C7BEC9F7DEFA27CEF9D7BE68D82CC07
:103AE0006C86BB657E912E4998304EBD6681B24E84
:103AF000698F3D65712C5E80487555144258174D8D
:103B000075396F6F356B6D3E77A080A86529647B32
:103B1000478085558D7D4478662D61854C83A06EE8
:103B20009ED9747BD15C64D5A9A6AC585EC66E687C
:103B3000C98E7A6125495C1B46621C425B153C605C
:103B400013396C1A3B60143B6E1D3D7321417A287A
:103B50004462153D7D2B458B374B8C2B43B5404A3A
:103B6000C94B4FCE5155D15457D4565BD95B5DDB11
:103B70006063DF6D6CE36F6DE36E6ADD6262D9577F
:103B80005ADC5558E1525CE65360EA6978EC838967
:103B9000EC8B8EEF8990EC9198DE667AD77278D9AB
:103BA00071729E435456133F57154166193E581182
:103BB0003A64183A6A1B3D7421408C364C8D334967
:103BC000751F3F83324962143C752A51C98889D3D5
:103BD0007B6ED77E6CCE8172CC8A78CD8A78C9898B
:103BE0007ACA8678CA8578C88578C48479C5837886
:103BF000C37F78C07E78C37F78C27C76BC7975B588
:103C00006F6FB56B6CE3A07BF5C794F5D0A1F2CED6
:103C10009FF1CDA0F2CEA0F1CEA5F0CFA7F0CFA816
:103C2000F0D1AAF0D0A9EFCEA5EFCDA2F0CB9FF0B6
:103C3000CA9B006B1C40701D3E781E3F7E223F7D5C
:103C40001F3F8A314AA2465CCB6B70DF8376E894D3
:103C50007AEC9A7DEE9D7DF0A17EF09E7CE8886EE8
:103C6000D66461AD4764B8637C9B324DAF4763C592
:103C70006A8496456A6B27566521505B1A485F2314
:103C8000526A2D616A2F676935719B78A67B427DE8
:103C9000834C87874E85804679834F7B6E366F8154
:103CA0004377D2706FDA5F61E6BFB5D2A99DA447B2
:103CB00055B5606BA87C7957184363193E59153C7C
:103CC000691B3C681A3C66173C6F1F4072214176A5
:103CD000264462133E8737508D384C9F3346C14788
:103CE0004ED15252D55855D75657D95B5EDE6163D7
:103CF000DF6567E0726FE1706CDB6163D7565BD2A2
:103D00004C55D34755DA4C56DC5564DC596CD863B6
:103D10007ADB6980E47A91E48597DD647ED467720A
:103D2000D86D6ED26C6B7022465517426119415A9C
:103D300017425F1940712444712042873349893208
:103D400047721D407F30485D123B792D50C57E8003
:103D5000D1786DD77C6ACF7F70CF8977CD8777CACE
:103D60008578C9857AC98479C7837AC38179C27F06
:103D700078C1817AC17E79C27E77C27D77BF79743E
:103D8000B67271B56B6ADE9A78F2BF8BF3CD9CF296
:103D9000CEA1F1CDA0F1CC9FF0CC9FEFCDA2EFCE84
:103DA000A5EFCFA8EFD0ACEED0ACEFD0ACF0CFAB5E
:103DB000F0CEA900711D3F751D3E79203E81244043
:103DC0007E1E3C8827419C3F53CA6A70DD847BE895
:103DD000927CEA997EED9C7FF09F7EF09E7CEA8B40
:103DE0006FD96559A3384A9B3B5EB25972A5364FCD
:103DF000C26278A45173621B516A295A6A2B5A63B2
:103E000028586A2D5F5C20576A326D8F6396884F01
:103E1000847D42786A3068814A817E4E857B4A7E05
:103E20007E4276B57090B16F89D9B1B5E6C6B6B4A9
:103E30006F6FA64755B8767B7D455857143F5A1487
:103E40003C75243E61143A6313396F1E3E78264256
:103E5000731E3E611038903D54943A4EA93545C9C1
:103E60004B4FD65758DA5C5ADA5958DD5D5DE0633E
:103E700061E2696BE26C6AE16F66C4494DB1394435
:103E8000BC4146C74B4CCC4D4ECD4C4FC64449BFB0
:103E90004046C6424ADA4F54D5575BB73A4BC24BFD
:103EA00057BF4C58D46D70AD52615816435B1640E5
:103EB0005F19425D18406920437526468530468665
:103EC0003246711A3A7927405A0E39853C5ABE77E4
:103ED0007DC6706DD67964D07B6CCE8878CD8A7AB9
:103EE000CB8477CA8478C88378C58079C48179C245
:103EF000807AC48078C17E79C07C76C27C75C17AB4
:103F000075B87270B36A6BD99375F0B882F4C894BF
:103F1000F2CDA1F2CC9FF1CC9EF1CA9CF0CA9EEFEB
:103F2000CBA0EFCDA6EDCFABEDD0AFEED1AEEFD0C5
:103F3000AFEFD0AD007E24427B1F3D81244083251E
:103F4000428020408725419C3C51C9676FDD8279C2
:103F5000E78E7AEA967BEC987DEF9F7DF19F7CEA75
:103F60008C70DA685BA739498F2747AD506AAD4D31
:103F700064B54456A55173692055743B6B763A6914
:103F8000602152672A5C632A606F356A80447A77C1
:103F90003B7171376E7A43766528608350839774DE
:103FA0009D6532616F2A4FB45D75CFA0AAD2A5AAD4
:103FB000DAB3A2AB5B5CA34555B8817F5A1D415370
:103FC000103D8D364962173D63153A6C1A3D7E2EC1
:103FD000476B1A3D65113B9542559C3E50B63C4996
:103FE000CF4E52D9575ADB5C5ADD5C5BE06261E030
:103FF0006566E1696BDF6567E06768DD6766DB6200
:1040000062DB6666DA6B6BDA6F6DDD6D6EDE736FC9
:10401000E0736FE1706CE6807AE9968BE67F81E46D
:104020008080D16B70CE626FCF6B7272254A57154C
:10403000415D1E465B1943621D43762A4887344C16
:10404000852E457C2541721D3C560A39934D63BF30
:10405000787BB56064D27563D07966CF8878CF8875
:1040600079CC8679CA8278C78179C77E77C683780A
:10407000C4807AC48079C37C78C17D7AC37B73C1E4
:104080007872BB7471B36B6DD48C74EEB47FF2C173
:104090008AF2C999F2CC9DF2CA9BF1CA9BF0CBA0DF
:1040A000EECBA0EECCA4EDCEAAEDD1AEEECFAEEE2F
:1040B000CFACEECEAC0086294386274187243F85CE
:1040C000253F7E213F8729429D3F53C8666EDD7F95
:1040D00078E78D77E99477EC987AED9B7EF19E7A7C
:1040E000EB8B6FD9695CA839469029419F344FB951
:1040F0005F7BB24D63AF577573265D89477C814BFB
:10410000775D194E692E60672B5F67295D7637678B
:10411000692D627941736A2D698453859466969CF2
:10412000668B91425159123F8538579C4D67A95B68
:104130006FC98F96CFA99BA14953A34A5BA1706F0A
:1041400052113D6D1F41671B4066163A69193D7C4F
:104150002B4567163C63123B9B495BA33F54BE450E
:104160004FD25156D9575BDB5A5DDD5D60E0636726
:10417000E26A6BE26768E06667E1686AE06B6EE0DE
:104180007071E07171DF7473DE7271DD7374DC79EC
:1041900079E0807DE79A93EDC4B8E7A5A3EDBDB2C1
:1041A000EAB4A5DF8685D76D74D26B74A5495D58D6
:1041B00015415B1B455918435E1C447126498A33DF
:1041C0004A812B4475203E6B1A3C570D3CA35B6A19
:1041D000BF7A7EA55161CE7062D07969CE8777CEE5
:1041E0008678CC877ACB8578C98176C88078C57F78
:1041F0007BC5807BC57E78C47D78C17E78C37C77A3
:10420000C27971B97370B36D6ED08873EEB47CF3FC
:10421000BB82F2C490F2CA99F2CA99F1C999F0CA64
:104220009EEFC99CEEC99CECCDA7EDCFADEECEAB19
:10423000EECDADEDCEAF00892C438B28418A2841CD
:104240008C2941811F3B842340A34456CE6A70DFF2
:104250008177E88D79EA9377EC947AF09D7DF19CF3
:104260007CEA8A6FD8685BA83C49902A429F344810
:10427000AF4158C46882AC54747126597630699342
:104280005F8D6828546027535C1D516C2E626E2E22
:104290006472356F8353857239748E61939C749DFB
:1042A000773364954E72782C5058143C6B214A9F9A
:1042B0006078C6858ED2A39FC18A809F4050B06827
:1042C000708B595D57113B60173D63143966183A7E
:1042D00074264262163C64163E9F5163AB3F4FC545
:1042E0004950D25256D8585ADA5B5CDD5D5FE064C3
:1042F00065E1696BE0686BE1696BE26D6DE37474B5
:10430000E37777E37776E27C7ADE7876DD7775DCC3
:104310007777DF7976E69189EDC0B2E69E95ECBBC2
:10432000AFE9B4A3E18B86D87378D76D73CA62699D
:104330006B1F465A19465917435818437126488A25
:104340003349802B437C223F6C1738570C3AAC66BC
:104350006FBC787E98475BC66B62D47863D08373FA
:10436000CF8777CB877ACA847BC98278C78079C6A2
:104370008078C4817AC37C76C27E77C27D76C17E26
:1043800078BF7B73BE7971B8706FCC8272ECB17BF1
:10439000F2BA7EF1BE87F1C897F2CB9CF1C899F0D2
:1043A000C99BEFC99BEFCA9EEDCBA2EDCDABEDCD86
:1043B000A9EECDABEDCDB0008E31468B2C449130C3
:1043C000468E2B44842540862540A34356CD686DF8
:1043D000E08076E78C79E99276ED967AF09C7EF231
:1043E0009C7CEA8870D9695EA73B4A912E479F3929
:1043F0004CAB4051BB5068C66A82691E5473336827
:10440000732F6A8554876F3561571B517031696FFF
:1044100038718151878A5E957D4C84966E9E8F623D
:104420008D672252803258A54A5D65204B5C224A36
:10443000652553AA657BB87588CE9E9BA7575EAA53
:104440005264CDA39A763D545A1B495F1D4765239C
:10445000486A21456216416B234AA45466AA3A4B26
:10446000C54B55D1555BD6585CD9595CDD5F63E0CF
:10447000666AE1696BE16B6CE06D72E37576E47A14
:104480007AE47C7CE5807FE3807DE17C79DF78776E
:10449000DE7474DE6D6EE37D7BE7A89DE48D89E9B3
:1044A000B6A9E7B2A5E28F87DC767BD76E74CF64BE
:1044B0006C9D4257591B475818455719466C254A59
:1044C00085334B7E2E4675203F6D1F415C0E3FBDF0
:1044D0007C7DBB747B8A3751B56063D17969CF7EAF
:1044E0006FD18979CD877BCB8679CA8379CC827865
:1044F000C78177C78079C57F7AC57E78C67E78C345
:104500007E77BF7B75BE7874B67070C57C73E8AA81
:104510007CF2BA7EF1BA80F0C18EF1C999F1CA9BE2
:10452000EFC89AEFC89BEFCA9EEFCCA0EDCDA6EDE9
:10453000CDA7EDCDAAEDCDAF00903046912D4490A2
:104540002B418E2B458423408829439E384DCC64D3
:1045500067DF7E74E78D78E99279EB9479EF9A7D45
:10456000F19E7CE9876ED8675CA83A4A932C44A0F8
:104570003948AD4050BA5066B04E6A691D4E783524
:10458000687430615C19518551816C2E6076397286
:1045900071357380538981508E956C9C9265956CB2
:1045A00034635A1540893954C477684D0D39551F05
:1045B0004E7B3A5E65214C8F425FA95E74B6767B76
:1045C000AB4F56BA6A71C5A29756153D570F3A665A
:1045D0002A4D631B405E10386A2146A65261A834FA
:1045E00044C84A50D15156D75559D95B5DDD5C60FE
:1045F000DF6266E26B6CE16F6FE17073E37474E429
:104600007A7BE47C7AE5807BE4807CE27B79DE73F4
:1046100073DC686EDB5B62DE6163DC686AD96C77D1
:10462000E1A3A5E6AEA2E4928BDC7C7CD87177D3C3
:10463000666DC55A5F681D45591843561845641E76
:10464000467F2E4A802F48751F3D67183B631341F4
:10465000CA8B89BB72787B2F50994857D07A6DCF1F
:104660007C6DD18B7ACF8878CD867BCB8378CA83DB
:1046700078C98078C4817BC78279C67F78C27F7809
:10468000C17D77C07B76BF7975B87371BE7570E3F5
:10469000A47DF1B97FF1BA80F1BD87F1C595F1C96B
:1046A0009CEFC89EEEC89EEEC99FEFCDA4EDCCA5B1
:1046B000EDCDA3EDC9A4ECCBAB00923149912E46D0
:1046C000922D458E2B4384254080233E8E2A42C75F
:1046D0005B5EDF7B70E88D77EA967EEC987DEF9CE1
:1046E0007CF19A7CEA876ED8645EA7394A932B44A2
:1046F000A1394AB0414DB84A60A449718C36637EF5
:10470000396D8D4B767B3468581C568C64936D31B3
:10471000686C326E7F518986558E9C77A481578153
:104720005819485E1A417A2E4C702A454A0F3C5758
:1047300016478F587D73294C5F1A425F1B425E1BE0
:1047400045AF6C71D89687DFA996AC7574540B365B
:104750005712385C123860133A6A1D43A0495BA9AE
:104760003443C3464BD05053D85457DB5A5EDE5FB8
:1047700063E1666AE26F71E37372E37372E3777801
:10478000E47D7AE57E7BE4817BE27F7AE07572D816
:104790006168D8565AC94F57BE4A58C44953BF4496
:1047A0004ED3565FE38F8EE39B90DD7F7DDA71758C
:1047B000D7696FD1606698374E5A184355164361D2
:1047C0001B437924427C2944741E3C6716396D1FB3
:1047D00048CF8F8DB974796B244786334DCB786C75
:1047E000CF796CD1877ACF8A7ACC8677CB8379CB15
:1047F0008277C8817AC8837BC78179C68078C37E77
:1048000077C37C74C47D74C17975BB7575B97172D9
:10481000DC967AF0B87FF1BB80F0BB82F1BF8CF1FF
:10482000C798EFC99CEDC8A1EDC9A1EDCDA6EDCC0F
:10483000A6EDCCA7EDCBA5ECC8A50093364C9132E4
:104840004A8D2F46892B4381223E751B3C7A1A3CA8
:10485000BD4F53DC7468E78D76EB957BEB987EEF6C
:104860009C7DF19B7AE9866FD7635DAA435E9D3D8F
:104870005BA53D4FAD4052B44A63B05376812F6083
:104880007B366E8E56888844775D1C567C4F867BBF
:1048900041745C1F5D83538F885A908A5C90825963
:1048A00082591846611C467529474D0C395B1D44D9
:1048B000611D4A6C2A548948685E163D5110384C77
:1048C0000A39855366D7A095DBA399D9A5959C5A3B
:1048D0005F580D35540D355D113A681C41973E53B4
:1048E000A12E3FBE444BCE5254D7575BDB595EDFFF
:1048F0006166E1676BE26C70E47474E47676E37988
:1049000078E47C7BE5817DE4817BE17C78DC6F6F02
:10491000D0535DDC5F5EC34D4FAE3C48CD4F52D4AB
:104920005156DD6466ECA297ECB4A4D97A77DC74B6
:1049300075DA6D72D36067BC5258651841551441E1
:104940005E1B46711E407C2842721C3D60113A7D00
:104950003357D09192B86E74651F43601942BE6D93
:104960006ACF796BCE8479D08B7CCD877BCC8579EF
:10497000C98277CA8378C98278C78379C57F7AC4A8
:104980008179C67E75C27D75BF7A77BD7674B56E46
:1049900072CE8879EBB280F1BB82F0B97FF0BA8237
:1049A000F0C28FF0C697EDC79BEEC79DECCAA0EC96
:1049B000C9A3EBCBA7EBCCA7EBC9A70092354C90D2
:1049C000314B8A2F488629437D1F3D6D15396E1165
:1049D00036B9484DDD7367E98E76EC987CEC9A7DAC
:1049E000EF9D7BF29A78E9856BD86257A13548979D
:1049F0003055B55A7AB6526AB04B65B8526E8531A9
:104A0000637D356983447C864B7D72356967286593
:104A100084598B5D205D81518E8E6F9B773B7172C7
:104A20003F6E5C1C4D63234E5F1840530F3B772C49
:104A3000509F565E8E394DAB5F67762D4A581339BD
:104A4000530E38581C47C08084BC7173B4707ACA46
:104A5000968A863D53510D37590F37651D42973C55
:104A60004F962A40BA444CCE5358D6595DDA5B6013
:104A7000DF6264E16A6EE26E70E47674E47875E495
:104A80007D7CE4807AE6837DE5837FE17A76DB6F67
:104A900070CD4D55D75960DD676BDD696CD95F63AB
:104AA000D7595FE37A7BF1B3A9F5D5C1DB837EDC0F
:104AB0007675DA6E73D66168CC596091344D5512B3
:104AC0003E5D173F6B1E417E2B4673203E5A0C38CD
:104AD00092445DCD8C8EB870755F183D510E3BAD24
:104AE0005D64CF7A6CCC7B72D18B7ACE877ACE869E
:104AF00079CB8276C98377CA8174C98278C7827973
:104B0000C5827CC78177C37E76C17E78BD7775B755
:104B10006F70C17875E3A87EF0BB82F0BA7FF0B801
:104B200081EFBA86F0C493EFC99CEEC99CEDC6979D
:104B3000ECC79CECC9A3EBCAA7EBC8A70090324C0A
:104B40008C304A862D4A832D4A7921416C153B6F62
:104B50001337BA484DDD7466E78C79EB977CED9B93
:104B60007CEF9C79F09878E98466D86154A2354648
:104B70009229429F374CB04E6BAC5881B3648996F2
:104B80004670762F6483407384498171346E763B1E
:104B90007A7F50876E346C794A88977BA9743B6D15
:104BA0006126575516425C18425B164258124174F2
:104BB000335B833150A75867B24C5488354E8A44D2
:104BC0005657103755103A611E40B65D5BC0656D93
:104BD000DFB5A1A06F6D4C0C37540D39621A3F8CB4
:104BE000324A9B2B40BA414BCD5157D65A5EDB5EC1
:104BF00062DE6267E26A6FE37374E47777E47A787F
:104C0000E57E7CE58480E78780E78580E27D78DD4E
:104C10007170D45C5FD3565BD96166D7585ED3544C
:104C20005AD96067E38084EFB6B0F4D9CADD8883CF
:104C3000DC7A7ADC7477D7666DD25C63B0485462F4
:104C4000153E5A16416B1F437F2A4474223E570A71
:104C500038A95A6CCA8488A6616D59143C530F3A1E
:104C6000944255C9766DC8756FD28D7CD08A79CE45
:104C70008779CD8475CC8376CB8277C9857CC881D2
:104C800077C58179C58178C57E76C17C78BF787516
:104C9000BA7473B76F72D4957BECB783F0BA80EFB8
:104CA000B87EEEB783EEBE89EFC799EFCB9DEEC815
:104CB0009BEDC89CECC9A2ECC9A3EDC8A4008D3142
:104CC0004B872F4B852F4D822B497A23446F193EFA
:104CD00073183CBC4B50DC7567E88D78EB967CEB29
:104CE0009779ED9A78EF9774E8816AD56257A03288
:104CF00044922843AF4E62B86182B96888AE5A7F49
:104D000099456D7729609E618C824674743C6C6312
:104D100026617A457F7A4B8586619D916BA1865786
:104D200087621F4D6020495D1A44510D3957133D6C
:104D300077284BA4495777214897496BC97E7FCB89
:104D400085806F1E407B324C430634904553B95BDF
:104D500060D29695E1C3AE763E504F0B385C153C61
:104D6000822844962940C0444CCF555CD7595FDB1C
:104D70005D62DF646AE16F73E57779E67C7AE683EA
:104D80007EE78680E78C83E88D84E78A81E6857DEF
:104D9000E17674DA6665D75E64D65D63D3565BD31D
:104DA000545AD96067E48788F0C0B9F1D3C7DD856C
:104DB00082DC7C7BDC7275DA6770D65E67C34F5528
:104DC0007E22455916426B1C417C2A45752340576B
:104DD0000B3CB76B77C8848A924E615511395A15CE
:104DE0003D782848C16F6CC6716DD2887AD28D78B3
:104DF000D18877CF8274CE8677CC8479CA8379C8FC
:104E0000837AC47F79C2817BC37D79C27B76BD778B
:104E100075BC7776B47073C27974E3A97DEEBA82FB
:104E2000EFB87FEEB77FEDB883EDBE8CEFC79AEE9B
:104E3000C99DEECBA1EDCAA1ECC69FECC4A0008B2E
:104E4000304A872D4B872E4B832C4A7D2747721B78
:104E50003F781C3EBD4D51DC766BE78C74EB987C43
:104E6000E9977AEC9D7CEF9773E87F69D76258A148
:104E70003547922948AE5B76A93D55B95573BF7346
:104E800094A86987692955803D72A3638D814E7D01
:104E900064265A6D39736D316F784D8992669C80A6
:104EA0004E7D621E4E63224F611D4853123D5414C5
:104EB000415F19427C2F4972204179254EAD687DB2
:104EC000AA5260AD585B99505C4B0C385D1740BCE2
:104ED0006665C06A71E4C1B2D6B6A15A1B3E5714CA
:104EE0003D791F41992B42BE4650CF535AD85C6042
:104EF000DC6063E0686CE37274E47B7BE6807EE9EF
:104F00008982E9948BEA928AE99289E98F86E68818
:104F10007EE27B75DC6666D86267D86264D5575CD2
:104F2000D6565BDC636DE58F94F2CBC1ECC2BADE82
:104F30008984DE807FDD7278DA676FD65F68CD574F
:104F40005B932D475B14406B1E43762342742443CE
:104F50005A0C3EC17C81C47A818D445D56123B63FC
:104F60001C3F641841B56465C5726DCC8477D48EDE
:104F70007AD28A79D08879CC8779CC847BC9827AB5
:104F8000C8807AC57E78C37D79C47C77C17C78C0BF
:104F90007876BD7977B87476B56E70D19176E9B4CC
:104FA00081EFBA7FEFB77DEEB77EEDB980EDBE8CB5
:104FB000EEC497EECAA0EDC9A1ECC499EAC29D0067
:104FC0008E2F49892C47892C46872946812643788C
:104FD0001D3D7E1E3DBF4B4FDC776CE78D78EB9817
:104FE0007AEB9B79EE9C7CEE9878E9846CD76358D9
:104FF000A43647973047A43E55AE4350BA474FC2F8
:105000004C57A4447198689A8B5685873F71873FA7
:105010006F874E816931625F215B6F3D73875A8F65
:105020006F36696422505B1845611D485A19425910
:1050300017435A1D4563264E6C1D3C5B133FA15020
:1050400067AC5867B56F735818404A0D38500B3A23
:10505000A05358B9565DD7A09AE3BEADA6807D5047
:1050600014416C1A40982E45C44C53D1545AD95C03
:1050700063DC6166E16B6EE37275E57A77E7847FE6
:10508000EA8E88EA9990EA9B8FE9958EE99387E604
:105090008A7FE37E77DE6E70DD6A6DDB6668D659E7
:1050A0005CD75B60DD6B72E79596F2D1C9E8B8AF6B
:1050B000DF8E85DD8280DC777BDA6971D85D69CE31
:1050C000585EA4384A69173F66163D701E41742425
:1050D000435F0E40CC8C8EC88082773051560E399B
:1050E0006B224260183FA04B58C4736CC67B78D4C7
:1050F0009785D2897ACF877ACD877BCC847ACB8209
:1051000079C88079C67E7AC57F7AC37E79C27C767B
:10511000C27B77BF7A78BB7675B56E71BC7573DF6D
:10512000A381EDB883EFB982EDB77FEDB882ECB91A
:1051300084ECBC8CEBC395ECC69CEDC69DEAC49F89
:105140000094324A9130488F2D458F2C44882A4450
:105150007C203E7F1F3FBF4E50DF7568E79174EDA6
:105160009B7BEE9F7DEFA17EF09B7EE8826BD562FC
:1051700059A63947993044A73A4BB04855B94B56D0
:10518000C1515FB3546E863D6B824179813F737D1F
:10519000366568215880487F6930688759928D60EC
:1051A0008F692F606626555B15425B18445A16447A
:1051B0005B1A4761214865254D7225434E0D3CA37E
:1051C0005466B16A757B345253123C52103B5112F3
:1051D0003E662248C06A6AC57880E2B2A1DDB9A203
:1051E00076415364143D972F45C44D55D1555DD636
:1051F000595FDB6267E06D70E27676E5817FE99169
:1052000088EB988FEB9C96E9A095E8968DE8968CB4
:10521000E79085E3837CE07675DF7274DD6B6DD992
:105220005F63D95B62DF6A71EAA6A1F2D5CDE7B30D
:10523000AADF8D8ADF8484DD7577DC6670D85D6ACD
:10524000D35B5FB2404C741B4066183E6F1E4276C3
:105250002646661543CE8A90C27C8168193E5C1250
:105260003A6A1F3F5F143A83314AC3726DC4737147
:10527000D08A7DD08C7BCD8577CC877CCC857ACB52
:10528000817AC98179C88179C77E7AC4807AC77EDC
:1052900077C47C78C17D7BBD7979B97373B36C7148
:1052A000C9877AE6AF82EEBA84EDB882EDB883ECB6
:1052B000BA83ECB986EAB989EBBD90ECC299EAC32E
:1052C000A0009B374D993A4E9530479330488D2931
:1052D0004181213F82203DBF5154DC7868E99075BF
:1052E000EC9C7AF09F7AF1A37DF09D7CE8856CD4EC
:1052F0006258A436479D2E41A63748B44A5EC05F27
:1053000077C66A7DB86D8FB665858941676A2B5F00
:105310006F306164235568275C773A717E447D89DC
:105320005B94946999692A595A194755144156133F
:10533000435A1D4E72366A7C4671763E6150134365
:105340009B5469A95D6B6B244B5816405717405509
:1053500016425014469E5965B75861D59991E0B5EB
:10536000A3D1B39D661C3E8F2841C04750D05459ED
:10537000D65A60DB656CE17275E37B7BE78885E874
:10538000928CEA9A92E99792E99B93E79B92E89A2A
:1053900091E7958DE48783E07879DE7176DD697039
:1053A000DA5E64DA5A62DF6C75EBADA9F2D2C8E757
:1053B000B0A6DF8F8AE08584DE7074DA626CD75B1A
:1053C00069CF5960B849537A1D4166194073224428
:1053D000732445691D4BD39094BC787F671A3E6057
:1053E000133860153A5F153A6E2044B96A6EC17081
:1053F00070CB8079D18C7ECF897CCC867CCC867A30
:10540000CA837DCA837CC9817BC9837BC78078C4FA
:105410007E78C27E77C27C7AC17B79BB7675B571A6
:1054200075B67375D4967EE7B385ECBA87EDBB8508
:10543000EDBA84ECB984EAB683E8B586EAB98FE9B7
:10544000BD9500A43C4CA03C4D9A364A95334890FB
:105450002E4484203B86233EC04D50DE7667E99083
:1054600076ED9C7BEF9F7DF2A37AF09D7BE8866BC7
:10547000D46257A739479D2F42A83B48B4404ABC45
:105480004853BD516ABD6386AF699ABE80A59A6CC8
:105490009C91658F6D2E5F6624566B285E7E427AE6
:1054A0008C5D928549838751845C1D4D4F10405C13
:1054B0001B507D44797E46827C488189599393763E
:1054C000A47F456B7D3252651C455C194158133DE4
:1054D00058174352164465274DBF6665C3757CDE79
:1054E000A696DFB9A8BA908386213FB7404ECC512B
:1054F0005AD45961DA6670E17478E47D7EE78A886F
:10550000E78D88E89790E6958FE69391E6938FE68E
:105510009292E59691E18787DD7476DC6C72DA65AC
:105520006BD85C66DA565FE27179EBB3B0F2D2C841
:10553000E4ACA2E09892DD7F80DB6E73D8646AD41D
:105540005B65CA565FB448507F1E3F65153E711EAD
:1055500041742445702450D79696AA65766C1E40F7
:1055600062173B5B153C631A3C60163EA95A67BE46
:105570007172C47775D08C7DCF887BCD867ACD83D0
:105580007ACC837DC9837BCA847BCB837AC88179BB
:10559000C68178C57F79C47D79C07A78C07875BCBA
:1055A0007573B67375B87878D69D83E8B588EDBD08
:1055B00089EEBB89EBB784EAB481E8B283E9B485AC
:1055C000E8B68A00AB4251A53B4B9D3A4C98324716
:1055D00096304488233D851F3BC15152DF7768E8F0
:1055E0009077ED9D7BF0A27EF1A380F19F7DE78512
:1055F0006CD76355A738469F3044AA3B47B6434C07
:10560000BE4B50C0494FBF4E5BC96C78B85D7398B4
:10561000456875356881427062215056164A70306F
:10562000697C417D854E816E376A763D6E511042B0
:105630005C1A5273366D662F66926AA2824B837B28
:10564000477B7B507C5A18425B14405A153D5A12D6
:105650003C5D1944581A454E13429B525CB8525B4C
:10566000D8978EDEAB9DE1C0AEB0736DA93345C750
:105670004C56D35B62D86771E0777BE17E83E48729
:1056800089E58786E38989E18587E18687E29090CD
:10569000E39191E28E90E18B8BDB757AD9656DDBBE
:1056A000676DD85A64DA5966E27E82EDB8B4F0CFFD
:1056B000C4E2AAA3DF8D8DDC7D7FD86C74D35F69D3
:1056C000CC545EBE505DAD414F801D3C67133B6CBA
:1056D0001E41722649772F58D69A9C9F5972752C75
:1056E0004B64193D59123A641B3A5A123B8E40578B
:1056F000BE7172BD7174CD877ED0887CCF887BCD22
:105700008379CD8279CA827BCA8379CA837ACA8136
:1057100078CA8178C88079C3807AC67D79C37B7660
:10572000C17A75BA7776B47074B97776D69C84E608
:10573000B48AEBB989EBB884EAB582E8B384E8B3FC
:1057400083E8B38500AE4552AB4450A441509E3926
:105750004B9A3446902B4290273FC85452E0796AC6
:10576000EA9277EE9D7BF0A27AF2A480F29E7DE829
:10577000856ED66257A837479D3045AA3C48B64447
:105780004CBE4B4FC0484FC65A5CC1727ED07D8C18
:10579000BC7080883F6074315B7A3861561344581E
:1057A000184C5C1E568D669B946AA385548D611FB0
:1057B000525F23576C2D667F4A85763F7686528BE3
:1057C000956B9F7E4D78601F4D5A143F5E173F5D6D
:1057D000143C5F17405D173E510D3857163FC06AA5
:1057E00069C57476D99888DBAB9FDEC1AFB16260C2
:1057F000B73E4CD05760D86872DE747BDD767BDFB5
:10580000787CDD7476DC7174DA6D72D76770D8706D
:1058100079D77883DD848CDC7F89D87A81D25B6903
:10582000D7636CD75A65D95A67E68187F0BFB8EF5E
:10583000CCC1DE9A99DB7D82D56872D0616BC85885
:1058400063AE404FAD444EA238457C1A39601039E2
:1058500066194072294C7E355ED598989B506A7ABD
:105860002E4E6319405C153E671F3E5D163C792D38
:105870004EBC6F74BB6C6FCC837BD18A7BCD857B38
:10588000CF867BCC827ACC8279CB847BCC8379CA5D
:105890008177CA8279CA8278C9837BC87F78C87DBC
:1058A00076C17A76BD7978BB7576B57276BA767A36
:1058B000CE9281DEA884E6B385E9B585E7B487E8B2
:1058C000B386E7B18400B04652AE4654AC4550A40E
:1058D0003B4A9F3447952D43952A41C95655E27A54
:1058E00068E99374EE9C7CEFA27CF2A47DF19E7A31
:1058F000E7856ED36057A639499F3446AD3F4AB617
:10590000464FBD4C53C04B53BD5D5568183FA95120
:1059100069CF8188BD718AC27783A4626F64235284
:1059200058164E7D477D834C82733A6D6A306150C4
:1059300010446F386D6A31656D316C7D4780915DC3
:1059400097906493804F805C1C4A58133F58133ED5
:105950005E153F5E123D601A405810384B0A37867C
:105960003E55B8555ED7A095DA9D8DDFB6A8DCBD53
:10597000AAB66061C54E59D2616CD7676FDA6D7592
:10598000DB6F75D56A72D1646FC45261BD5062C954
:105990006772C0626FD1818BDC8E92D87679D056D7
:1059A00061D15B69D75A63DA626BE68585F3C3BB65
:1059B000EDC5BCDC8D8BD2747BCC6671BF5C6CAFEB
:1059C0005160902A4489284395314476183B6113ED
:1059D0003C641D45762D4F813861D296969147647F
:1059E000833855651B415E193F61173C641D427148
:1059F000294CAD626FBE7072C57976D18B7ECF882F
:105A00007ACF867ACE8379CC8379C8827BCD82782F
:105A1000CC8980CC8479CB827ACC857ACC8379CAC4
:105A20007F77C57D76C27975BD7776BA7476B573A2
:105A300078B7757AC2827CD4977EDEA783E4AE867F
:105A4000E6B086E7B18900AD4450AC434FA9424E61
:105A5000A63C4C9F3A4A932F44952D44C95856E290
:105A60007A68EB9175EE9E78EFA07CF0A07EEF9BBC
:105A70007CE6816CD25D56A6384B9D3448AA3B49E2
:105A8000B5444DBA4950BD4951B84E5388273C7171
:105A90001B3F934569B3667BD89699EAAD98CDA72D
:105AA0008C73325163285D57184F79417C83487B52
:105AB0005E1F5463255E74346A7939717F4D837E2D
:105AC0004581936C9B6927555A17445B143D5B11C4
:105AD0003C601A43651C455D143D5E183F4F0D3810
