:100000000C94C6000C94E5000C94E5000C94E500FB
:100010000C94E5000C94E5000C94E5000C94E500CC
:100020000C94E5000C94E5000C94E5000C94E500BC
:100030000C94E5000C945F020C94E5000C94E50030
:100040000C94E5000C94E5000C94E5000C94E5009C
:100050000C94E5000C94E5000C94E5000C94E5008C
:100060000C94E5000C94E5000C94E5000C94E5007C
:100070000C94E5000C94E5000C94E5000C94E5006C
:100080000C94E5000C94E5000C94E50000000000E1
:100090000000000000000000000000000000000060
:1000A0000000000000000000000000000000000050
:1000B0000000000000000000000000000000000040
:1000C000000000000000000000000000000001012E
:1000D0000101010101010101010101010101010110
:1000E0000101010101010101010101010101010100
:1000F00001010202020202020202020202020202E2
:1001000002020202020202020203030303030303C8
:1001100003030303030303030303030404040404AA
:100120000404040404040404040405050505050589
:100130000505050505050506060606060606060666
:100140000606060707070707070707070707080840
:100150000808080808080808090909090909090917
:10016000090A0A0A0A0A0A0A0A0A0B0B0B0B0B0BEA
:100170000B0B0C0C0C0C0C0C0C0C0D0D0D0D0D0DBB
:100180000D0E0E0E0E0E0E0E0F0F0F0F11241FBEB2
:10019000CFEFD0E4DEBFCDBF11E0A0E0B1E0ECE3F3
:1001A000F8E000E00BBF02C007900D92A630B10747
:1001B000D9F711E2A6E0B1E001C01D92AA30B10763
:1001C000E1F70E94E7000C941C040C9400000E94CC
:1001D000D803C0E0C03288F5D0E080910801815F8B
:1001E00080930801813FA0F01092080180910701DF
:1001F000815F80930701813F58F010920701809141
:100200000601815F80930601813F10F01092060184
:100210000091060120910701409108016C2F8D2F5C
:100220000E942A0187E592E00197F1F700C00000E3
:10023000DF5FD03491F6CF5FCDCF0E9414049FEFE3
:1002400029E688E1915020408040E1F700C000009D
:10025000C0E0C2CF2F923F924F925F926F927F92F7
:100260008F929F92AF92BF92CF92DF92EF92FF92C6
:100270000F931F93CF93DF93CDB7DEB760970FB681
:10028000F894DEBF0FBECDBFE42FF0E0E457FF4F80
:100290004491E22FF0E0E457FF4F2491E02FF0E08B
:1002A000E457FF4F0491A62FA295A695A77070E47E
:1002B000A79FF0011124E80FF11DFE87ED87862F1F
:1002C0008F706F7170E06031710514F035E001C01E
:1002D00032E0809004019090050190E4899F300104
:1002E0001124F401E60DF71DAD85BE85EA0FFB1F55
:1002F0001081832F90E067E070E0032E01C0660F4D
:100300000A94EAF7562F5095BC016F5F7F4F029613
:1003100020FBAA24A0F8062E01C0AA0C0A94EAF732
:1003200000FBCC24C0F8082E01C0CC0C0A94EAF7DC
:10033000CA28B42FB170BF87188AEF84F888032EBB
:1003400002C0EE0CFF1C0A94E2F7F88AEF86CE2872
:100350001523C12AC082D301BC5FA80DB91DED854C
:10036000FE85AE0FBF1F9C9121FBFF27F0F9F9839B
:100370001A82E980FA80062E02C0EE0CFF1C0A9455
:10038000E2F7FA82E98201FBEE24E0F8082E01C0D0
:10039000EE0C0A94EAF7E981EE2A41FB442440F886
:1003A000032E01C0440C0A94EAF7E4289523E92AB5
:1003B000EC92F301F85FE80DF91DED84FE84EE0D7B
:1003C000FF1D908122FB222420F8062E01C0220C62
:1003D0000A94EAF702FBFF24F0F8FB821C82AB814F
:1003E000BC81082E02C0AA0FBB1F0A94E2F7BC838F
:1003F000AB832A2A42FBBB27B0F9BD831E82ED8066
:10040000FE80032E02C0EE0CFF1C0A94E2F7FE826F
:10041000ED822E289523292A2082F301F45FE80D2E
:10042000F91DAD85BE85EA0FFB1F908123FB2227B6
:1004300020F92F831886EF80F88402C0EE0CFF1C91
:100440006A95E2F7F886EF8203FB002700F9098737
:100450001A86A985BA8502C0AA0FBB1F8A95E2F742
:10046000BA87A9878E2D8A2B43FB442740F94B87F7
:100470001C86EB84FC8402C0EE0CFF1C3A95E2F76C
:10048000FC86EB868E299523892B808360960FB698
:10049000F894DEBF0FBECDBFDF91CF911F910F91BA
:1004A000FF90EF90DF90CF90BF90AF909F908F9094
:1004B0007F906F905F904F903F902F9008951F9284
:1004C0000F920FB60F9211240BB60F922F933F93FA
:1004D0008F939F93EF93FF93809101018F5F8093A0
:1004E0000101843041F51092010186E594E090937A
:1004F000890080938800809100018F5F80930001C4
:10050000803119F510920001809109018823E9F0EA
:100510008091040190910501209102013091030125
:10052000309305012093040190930301809302010D
:10053000109209010AC08091880090918900880F6B
:10054000991F90938900809388008BB18F70806D84
:100550008BB985B1807F90910001892B85B98091FD
:1005600001012091000130E1839FC0011124820F1D
:10057000911D26E0880F991F2A95E1F7209102012D
:1005800030910301280F391FF901E05CFF4F80E231
:10059000029008B889B989B9029008B889B989B9AF
:1005A000029008B889B989B9029008B889B989B99F
:1005B000029008B889B989B9029008B889B989B98F
:1005C000029008B889B989B9029008B889B989B97F
:1005D000029008B889B989B9029008B889B989B96F
:1005E000029008B889B989B9029008B889B989B95F
:1005F000029008B889B989B9029008B889B989B94F
:10060000029008B889B989B9029008B889B989B93E
:10061000029008B889B989B9029008B889B989B92E
:10062000029008B889B989B9029008B889B989B91E
:10063000029008B889B989B9029008B889B989B90E
:10064000029008B889B989B9029008B889B989B9FE
:10065000029008B889B989B9029008B889B989B9EE
:10066000029008B889B989B9029008B889B989B9DE
:10067000029008B889B989B9029008B889B989B9CE
:10068000029008B889B989B9029008B889B989B9BE
:10069000029008B889B989B9029008B889B989B9AE
:1006A000029008B889B989B9029008B889B989B99E
:1006B000029008B889B989B9029008B889B989B98E
:1006C000029008B889B989B9029008B889B989B97E
:1006D000029008B889B989B9029008B889B989B96E
:1006E000029008B889B989B9029008B889B989B95E
:1006F000029008B889B989B9029008B889B989B94E
:10070000029008B889B989B9029008B889B989B93D
:10071000029008B889B989B9029008B889B989B92D
:10072000029008B889B989B9029008B889B989B91D
:10073000029008B889B989B9029008B889B989B90D
:10074000029008B889B989B9029008B889B989B9FD
:10075000029008B889B989B9029008B889B989B9ED
:10076000029008B889B989B9029008B889B989B9DD
:10077000029008B889B989B9029008B889B989B9CD
:10078000029008B889B989B9029008B889B989B9BD
:100790008BB18F708BB9FF91EF919F918F913F91AA
:1007A0002F910F900BBE0F900FBE0F901F901895BA
:1007B00087B18C6F87B988B1837088B984B18F6035
:1007C00084B985B1807F85B98AB1806F8AB98BB1D0
:1007D0008F70806C8BB980E090E1EAE0F1E0DF019E
:1007E0009C011D9221503040E1F7EAE0F1E1DF0188
:1007F0009C011D9221503040E1F7F8941092800046
:1008000089E08093810010928200109285001092FE
:10081000840086E594E0909389008093880082E0CC
:1008200080936F007894089581E08093090180910E
:0C08300009018111FCCF0895F894FFCF5E
:06083C000F030A110A017E
:00000001FF
