:100000000C94C6000C94E5000C94E5000C94E500FB
:100010000C94E5000C94E5000C94E5000C94E500CC
:100020000C94E5000C94E5000C94E5000C94E500BC
:100030000C94E5000C9448020C94E5000C94E50047
:100040000C94E5000C94E5000C94E5000C94E5009C
:100050000C94E5000C94E5000C94E5000C94E5008C
:100060000C94E5000C94E5000C94E5000C94E5007C
:100070000C94E5000C94E5000C94E5000C94E5006C
:100080000C94E5000C94E5000C94E50000000000E1
:100090000000000000000000000000000000000060
:1000A0000000000000000000000000000000000050
:1000B0000000000000000000000000000000000040
:1000C000000000000000000000000000000001012E
:1000D0000101010101010101010101010101010110
:1000E0000101010101010101010101010101010100
:1000F00001010202020202020202020202020202E2
:1001000002020202020202020203030303030303C8
:1001100003030303030303030303030404040404AA
:100120000404040404040404040405050505050589
:100130000505050505050506060606060606060666
:100140000606060707070707070707070707080840
:100150000808080808080808090909090909090917
:10016000090A0A0A0A0A0A0A0A0A0B0B0B0B0B0BEA
:100170000B0B0C0C0C0C0C0C0C0C0D0D0D0D0D0DBB
:100180000D0E0E0E0E0E0E0E0F0F0F0F11241FBEB2
:10019000CFEFD0E4DEBFCDBF11E0A0E0B1E0EEEAEA
:1001A000F7E000E00BBF02C007900D92A230B1074C
:1001B000D9F711E1A2E0B1E001C01D92A630B1076C
:1001C000E1F70E94E7000C94D5030C9400000E9414
:1001D000A103C0E0C03288F5D0E080910401815FC6
:1001E00080930401813FA0F01092040180910301EB
:1001F000815F80930301813F58F010920301809149
:100200000201815F80930201813F10F01092020190
:100210000091020120910301409104016C2F8D2F68
:100220000E94280187E592E00197F1F700C00000E5
:10023000DF5FD03491F6CF5FCDCF9FEF29E688E125
:10024000915020408040E1F700C00000C0E0C4CFE2
:100250002F923F924F925F926F927F928F929F92D6
:10026000AF92BF92CF92DF92EF92FF920F931F93C4
:10027000CF93DF93CDB7DEB72C970FB6F894DEBFE0
:100280000FBECDBFE42FF0E0E457FF4F4491E22FC3
:10029000F0E0E457FF4F5491E02FF0E0E457FF4FB8
:1002A0000491A62FA295A695A77020E4A29FD00145
:1002B0001124A80FB11D262F2F706F7170E06031CF
:1002C000710514F015E001C012E080E4289F900150
:1002D0001124F901EA5FFE4FEA0FFB1F6080812FB6
:1002E00090E067E070E0012E01C0660F0A94EAF723
:1002F000762E7094BC016F5F7F4F029650FB88246E
:1003000080F8062E01C0880C0A94EAF700FBAA24A4
:10031000A0F8082E01C0AA0C0A94EAF7A82840FB0E
:10032000CC24C0F8012E01C0CC0C0A94EAF7AC280A
:100330006720A628A082F901EA5FFA4FEA0FFB1FA7
:10034000908151FBEE24E0F8062E01C0EE0C0A94D9
:10035000EAF701FBCC24C0F8CB861C86CB84DC8476
:10036000082E02C0CC0CDD1C0A94E2F7DC86CB869A
:10037000EC2841FB442440F8012E01C0440C0A94AF
:10038000EAF7E4289721E92AE082F901EA5FF64FCB
:100390006F01CA0EDB1EF601908152FB222420F869
:1003A000062E01C0220C0A94EAF702FBFF27F0F99F
:1003B000F9831A82E980FA80082E02C0EE0CFF1C35
:1003C0000A94E2F7FA82E9822E2842FBFF24F0F831
:1003D000FB821C82EB80FC80012E02C0EE0CFF1C15
:1003E0000A94E2F7FC82EB822E289721292AF60153
:1003F0002082F901EA5FF24FEA0FFB1F908153FB65
:10040000552750F95D831E82CD80DE8002C0CC0C62
:10041000DD1C6A95E2F7DE82CD8203FB002700F93E
:100420000F831886EF80F88402C0EE0CFF1C8A95BB
:10043000E2F7F886EF828C2D8E2943FB442740F9A2
:1004400049871A86A985BA8502C0AA0FBB1F1A95CB
:10045000E2F7BA87A9878A2B9721892B80832C966C
:100460000FB6F894DEBF0FBECDBFDF91CF911F91C5
:100470000F91FF90EF90DF90CF90BF90AF909F9043
:100480008F907F906F905F904F903F902F90089546
:100490001F920F920FB60F9211240BB60F928F93EB
:1004A0009F93EF93FF93809101018F5F80930101F0
:1004B000843099F41092010186E594E090938900CC
:1004C00080938800809100018F5F803119F08093C4
:1004D00000010DC0109200010AC080918800909127
:1004E0008900880F991F90938900809388008BB1B1
:1004F0008F70806D8BB985B1807F90910001892BC1
:1005000085B9E09101018091000190E1E99FF0013E
:100510001124E80FF11D86E0EE0FFF1F8A95E1F729
:10052000EA5BFE4F80E2029008B889B989B902906F
:1005300008B889B989B9029008B889B989B902900F
:1005400008B889B989B9029008B889B989B90290FF
:1005500008B889B989B9029008B889B989B90290EF
:1005600008B889B989B9029008B889B989B90290DF
:1005700008B889B989B9029008B889B989B90290CF
:1005800008B889B989B9029008B889B989B90290BF
:1005900008B889B989B9029008B889B989B90290AF
:1005A00008B889B989B9029008B889B989B902909F
:1005B00008B889B989B9029008B889B989B902908F
:1005C00008B889B989B9029008B889B989B902907F
:1005D00008B889B989B9029008B889B989B902906F
:1005E00008B889B989B9029008B889B989B902905F
:1005F00008B889B989B9029008B889B989B902904F
:1006000008B889B989B9029008B889B989B902903E
:1006100008B889B989B9029008B889B989B902902E
:1006200008B889B989B9029008B889B989B902901E
:1006300008B889B989B9029008B889B989B902900E
:1006400008B889B989B9029008B889B989B90290FE
:1006500008B889B989B9029008B889B989B90290EE
:1006600008B889B989B9029008B889B989B90290DE
:1006700008B889B989B9029008B889B989B90290CE
:1006800008B889B989B9029008B889B989B90290BE
:1006900008B889B989B9029008B889B989B90290AE
:1006A00008B889B989B9029008B889B989B902909E
:1006B00008B889B989B9029008B889B989B902908E
:1006C00008B889B989B9029008B889B989B902907E
:1006D00008B889B989B9029008B889B989B902906E
:1006E00008B889B989B9029008B889B989B902905E
:1006F00008B889B989B9029008B889B989B902904E
:1007000008B889B989B9029008B889B989B902903D
:1007100008B889B989B9029008B889B989B902902D
:1007200008B889B989B98BB18F708BB9FF91EF91F6
:100730009F918F910F900BBE0F900FBE0F901F9047
:10074000189587B18C6F87B988B1837088B984B1E7
:100750008F6084B985B1807F85B98AB1806F8AB98D
:100760008BB18F70806C8BB980E090E1E6E0F1E0B6
:10077000DF019C011D9221503040E1F7F894109266
:10078000800089E0809381001092820010928500A1
:100790001092840086E594E090938900809388000D
:0E07A00082E080936F0078940895F894FFCF64
:0207AE000F0337
:00000001FF
