:100000000C9446000C9465000C9465000C946500FB
:100010000C9465000C9465000C9465000C946500CC
:100020000C9465000C9465000C9465000C946500BC
:100030000C9465000C94C8010C9465000C94650048
:100040000C9465000C9465000C9465000C9465009C
:100050000C9465000C9465000C9465000C9465008C
:100060000C9465000C9465000C9465000C9465007C
:100070000C9465000C9465000C9465000C9465006C
:100080000C9465000C9465000C94650011241FBE4F
:10009000CFEFD0E4DEBFCDBF11E0A0E0B1E0EEEAEB
:1000A000F6E000E00BBF02C007900D92A230B1074E
:1000B000D9F711E1A2E0B1E001C01D92A630B1076D
:1000C000E1F70E9467000C9455030C9400000E9415
:1000D0002103C0E0C03288F5D0E080910401815F47
:1000E00080930401813FA0F01092040180910301EC
:1000F000815F80930301813F58F01092030180914A
:100100000201815F80930201813F10F01092020191
:100110000091020120910301409104016C2F8D2F69
:100120000E94A80087E592E00197F1F700C0000067
:10013000DF5FD03491F6CF5FCDCF9FEF29E688E126
:10014000915020408040E1F700C00000C0E0C4CFE3
:100150002F923F924F925F926F927F928F929F92D7
:10016000AF92BF92CF92DF92EF92FF920F931F93C5
:10017000CF93DF93CDB7DEB727970FB6F894DEBFE6
:100180000FBECDBF50E014E0559547951A95E1F7A5
:1001900030E094E0359527959A95E1F710E074E00A
:1001A000159507957A95E1F7E62FE295E695E770C4
:1001B00070E4E79FF0011124E80FF11D962F9F7066
:1001C0006F7170E0603171051CF0B5E09B2E02C0CC
:1001D000A2E09A2E60E4969FD0011124BF83AE83E3
:1001E000AA5FBE4F7D01EE0EFF1ED701BC91BD83FD
:1001F000892D90E067E070E0092C01C0660F0A9439
:10020000EAF7862E8094BC016F5F7F4F02965901FA
:10021000A1E0AA22BB24062E01C0AA0C0A94EAF788
:100220006801B1E0CB22DD24082E01C0CC0C0A9479
:10023000EAF7AC286A01A1E0CA22DD24092C01C03A
:10024000CC0C0A94EAF7AC28BD81B821AB2AD701BF
:10025000AC92AE81BF81AA5FBA4F7D01EE0EFF1E48
:10026000D7019C9121FBAA27A0F9062E01C0AA0F55
:100270000A94EAF701FB442440F8082E01C0440C1C
:100280000A94EAF74A2A41FB222420F8092C01C0EB
:10029000220C0A94EAF742289821492AD7014C9265
:1002A000AE81BF81AA5FB64F6D01CE0EDF1ED601B3
:1002B0007C9122FBBB27B0F9B9831A82E980FA80CE
:1002C000062E02C0EE0CFF1C0A94E2F7FA82E982C5
:1002D00002FBFF24F0F8FB821C82AB81BC81082E5C
:1002E00002C0AA0FBB1F0A94E2F7BC83AB839E2D0A
:1002F0009A2B42FB662460F8092C01C0660C0A9414
:10030000EAF796297821972BD6019C93AE81BF817D
:10031000AA5FB24FAE0FBF1F9C9173E03695279531
:100320007A95E1F7062E01C0220F0A94EAF7E3E07E
:1003300016950795EA95E1F7082E01C0000F0A947B
:10034000EAF7022BF3E056954795FA95E1F701C0DD
:10035000440F9A94EAF7042B9821092B0C932796C3
:100360000FB6F894DEBF0FBECDBFDF91CF911F91C6
:100370000F91FF90EF90DF90CF90BF90AF909F9044
:100380008F907F906F905F904F903F902F90089547
:100390001F920F920FB60F9211240BB60F928F93EC
:1003A0009F93EF93FF93809101018F5F80930101F1
:1003B000843099F41092010186E594E090938900CD
:1003C00080938800809100018F5F803119F08093C5
:1003D00000010DC0109200010AC080918800909128
:1003E0008900880F991F90938900809388008BB1B2
:1003F0008F70806D8BB985B1807F90910001892BC2
:1004000085B9E09101018091000190E1E99FF0013F
:100410001124E80FF11D86E0EE0FFF1F8A95E1F72A
:10042000EA5BFE4F80E2029008B889B989B9029070
:1004300008B889B989B9029008B889B989B9029010
:1004400008B889B989B9029008B889B989B9029000
:1004500008B889B989B9029008B889B989B90290F0
:1004600008B889B989B9029008B889B989B90290E0
:1004700008B889B989B9029008B889B989B90290D0
:1004800008B889B989B9029008B889B989B90290C0
:1004900008B889B989B9029008B889B989B90290B0
:1004A00008B889B989B9029008B889B989B90290A0
:1004B00008B889B989B9029008B889B989B9029090
:1004C00008B889B989B9029008B889B989B9029080
:1004D00008B889B989B9029008B889B989B9029070
:1004E00008B889B989B9029008B889B989B9029060
:1004F00008B889B989B9029008B889B989B9029050
:1005000008B889B989B9029008B889B989B902903F
:1005100008B889B989B9029008B889B989B902902F
:1005200008B889B989B9029008B889B989B902901F
:1005300008B889B989B9029008B889B989B902900F
:1005400008B889B989B9029008B889B989B90290FF
:1005500008B889B989B9029008B889B989B90290EF
:1005600008B889B989B9029008B889B989B90290DF
:1005700008B889B989B9029008B889B989B90290CF
:1005800008B889B989B9029008B889B989B90290BF
:1005900008B889B989B9029008B889B989B90290AF
:1005A00008B889B989B9029008B889B989B902909F
:1005B00008B889B989B9029008B889B989B902908F
:1005C00008B889B989B9029008B889B989B902907F
:1005D00008B889B989B9029008B889B989B902906F
:1005E00008B889B989B9029008B889B989B902905F
:1005F00008B889B989B9029008B889B989B902904F
:1006000008B889B989B9029008B889B989B902903E
:1006100008B889B989B9029008B889B989B902902E
:1006200008B889B989B98BB18F708BB9FF91EF91F7
:100630009F918F910F900BBE0F900FBE0F901F9048
:10064000189587B18C6F87B988B1837088B984B1E8
:100650008F6084B985B1807F85B98AB1806F8AB98E
:100660008BB18F70806C8BB980E090E1E6E0F1E0B7
:10067000DF019C011D9221503040E1F7F894109267
:10068000800089E0809381001092820010928500A2
:100690001092840086E594E090938900809388000E
:0E06A00082E080936F0078940895F894FFCF65
:0206AE000F0338
:00000001FF
