:100000000C9446000C9465000C9465000C946500FB
:100010000C9465000C9465000C9465000C946500CC
:100020000C9465000C9465000C9465000C946500BC
:100030000C9465000C94DE010C9465000C94650032
:100040000C9465000C9465000C9465000C9465009C
:100050000C9465000C9465000C9465000C9465008C
:100060000C9465000C9465000C9465000C9465007C
:100070000C9465000C9465000C9465000C9465006C
:100080000C9465000C9465000C94650011241FBE4F
:10009000CFEFD0E4DEBFCDBF11E0A0E0B1E0EAE3F6
:1000A000F7E000E00BBF02C007900D92A630B10749
:1000B000D9F711E2A6E0B1E001C01D92AA30B10764
:1000C000E1F70E9467000C949B030C9400000E94CF
:1000D0005703C0E0C03288F5D0E080910801815F0D
:1000E00080930801813FA0F01092080180910701E0
:1000F000815F80930701813F58F010920701809142
:100100000601815F80930601813F10F01092060185
:100110000091060120910701409108016C2F8D2F5D
:100120000E94AA0087E592E00197F1F700C0000065
:10013000DF5FD03491F6CF5FCDCF0E9493039FEF66
:1001400029E688E1915020408040E1F700C000009E
:10015000C0E0C2CF2F923F924F925F926F927F92F8
:100160008F929F92AF92BF92CF92DF92EF92FF92C7
:100170000F931F93CF93DF93CDB7DEB72B970FB6B7
:10018000F894DEBF0FBECDBF50E014E05595479503
:100190001A95E1F730E094E0359527959A95E1F7C7
:1001A00010E074E0159507957A95E1F7E62FE29552
:1001B000E695E77070E4E79F60011124C80ED11C3A
:1001C000D986C886862F8F706F7170E06031710597
:1001D0001CF0B5E09B2E02C0A2E09A2EA091040173
:1001E000B0910501BB87AA87B0E48B9F70011124F1
:1001F000EA85FB85EE0DFF1DC884D984EC0DFD1D3D
:10020000D080DF82892D90E067E070E0092C01C08A
:10021000660F0A94EAF7862E8094BC016F5F7F4FC9
:1002200002965901A1E0AA22BB24062E01C0AA0C05
:100230000A94EAF76801B1E0CB22DD24082E01C060
:10024000CC0C0A94EAF7AC286A01A1E0CA22DD24AA
:10025000092C01C0CC0C0A94EAF7AC28BF81B82164
:10026000AB2AA082D701BC5FEA85FB85AE0FBF1F1A
:10027000C884D984AC0DBD1D9C9121FB442440F859
:10028000062E01C0440C0A94EAF701FB222420F850
:10029000082E01C0220C0A94EAF7422841FBDD2413
:1002A000D0F8D9821A82E981FA81092C02C0EE0FB6
:1002B000FF1F0A94E2F7FA83E9834E2A9821492A1C
:1002C0004C92D701B85FCA84DB84AC0DBD1DE885B4
:1002D000F985AE0FBF1F7C9122FBFF27F0F9FB834E
:1002E0001C82CB80DC80062E02C0CC0CDD1C0A9464
:1002F000E2F7DC82CB8202FBDD24D0F8DD821E82B5
:10030000ED81FE81082E02C0EE0FFF1F0A94E2F776
:10031000FE83ED839C2D9E2B42FB662460F8092C06
:1003200001C0660C0A94EAF796297821972B9C93D2
:10033000D701B45FCA84DB84AC0DBD1DE885F985A7
:10034000AE0FBF1F9C9173E0369527957A95E1F724
:10035000062E01C0220F0A94EAF7E3E016950795EE
:10036000EA95E1F7082E01C0000F0A94EAF7022B84
:10037000F3E056954795FA95E1F701C0440F9A943A
:10038000EAF7042B9821092B0C932B960FB6F894BF
:10039000DEBF0FBECDBFDF91CF911F910F91FF90B8
:1003A000EF90DF90CF90BF90AF909F908F907F9015
:1003B0006F905F904F903F902F9008951F920F92F3
:1003C0000FB60F9211240BB60F922F933F938F937A
:1003D0009F93EF93FF93809101018F5F80930101C1
:1003E000843041F51092010186E594E090938900F4
:1003F00080938800809100018F5F8093000180319D
:1004000019F510920001809109018823E9F080918B
:100410000401909105012091020130910301309374
:10042000050120930401909303018093020110922F
:1004300009010AC08091880090918900880F991F56
:1004400090938900809388008BB18F70806D8BB9F9
:1004500085B1807F90910001892B85B98091010140
:100460002091000130E1839FC0011124820F911D72
:10047000E6E0880F991FEA95E1F72091020130919B
:100480000301280F391FF901E05CFF4F80E2029061
:1004900008B889B989B9029008B889B989B90290B0
:1004A00008B889B989B9029008B889B989B90290A0
:1004B00008B889B989B9029008B889B989B9029090
:1004C00008B889B989B9029008B889B989B9029080
:1004D00008B889B989B9029008B889B989B9029070
:1004E00008B889B989B9029008B889B989B9029060
:1004F00008B889B989B9029008B889B989B9029050
:1005000008B889B989B9029008B889B989B902903F
:1005100008B889B989B9029008B889B989B902902F
:1005200008B889B989B9029008B889B989B902901F
:1005300008B889B989B9029008B889B989B902900F
:1005400008B889B989B9029008B889B989B90290FF
:1005500008B889B989B9029008B889B989B90290EF
:1005600008B889B989B9029008B889B989B90290DF
:1005700008B889B989B9029008B889B989B90290CF
:1005800008B889B989B9029008B889B989B90290BF
:1005900008B889B989B9029008B889B989B90290AF
:1005A00008B889B989B9029008B889B989B902909F
:1005B00008B889B989B9029008B889B989B902908F
:1005C00008B889B989B9029008B889B989B902907F
:1005D00008B889B989B9029008B889B989B902906F
:1005E00008B889B989B9029008B889B989B902905F
:1005F00008B889B989B9029008B889B989B902904F
:1006000008B889B989B9029008B889B989B902903E
:1006100008B889B989B9029008B889B989B902902E
:1006200008B889B989B9029008B889B989B902901E
:1006300008B889B989B9029008B889B989B902900E
:1006400008B889B989B9029008B889B989B90290FE
:1006500008B889B989B9029008B889B989B90290EE
:1006600008B889B989B9029008B889B989B90290DE
:1006700008B889B989B9029008B889B989B90290CE
:1006800008B889B989B9029008B889B989B98BB114
:100690008F708BB9FF91EF919F918F913F912F9127
:1006A0000F900BBE0F900FBE0F901F90189587B143
:1006B0008C6F87B988B1837088B984B18F6084B931
:1006C00085B1807F85B98AB1806F8AB98BB18F700F
:1006D000806C8BB980E090E1EAE0F1E0DF019C0101
:1006E0001D9221503040E1F7EAE0F1E1DF019C0189
:1006F0001D9221503040E1F7F8941092800089E07B
:1007000080938100109282001092850010928400E4
:1007100086E594E0909389008093880082E080933E
:100720006F007894089581E0809309018091090118
:0A0730008111FCCF0895F894FFCF6B
:06073A000F030A110A0181
:00000001FF
